{"abi":[{"type":"constructor","inputs":[{"name":"_base","type":"address","internalType":"address"},{"name":"_yToken","type":"address","internalType":"address"},{"name":"_vault","type":"address","internalType":"address"},{"name":"_router","type":"address","internalType":"address"},{"name":"_fee","type":"uint24","internalType":"uint24"},{"name":"_tickSpacing","type":"int24","internalType":"int24"},{"name":"_hooks","type":"address","internalType":"contract IHooks"}],"stateMutability":"nonpayable"},{"type":"function","name":"BASE","inputs":[],"outputs":[{"name":"","type":"address","internalType":"contract IERC20"}],"stateMutability":"view"},{"type":"function","name":"VAULT","inputs":[],"outputs":[{"name":"","type":"address","internalType":"contract IAsyncVault"}],"stateMutability":"view"},{"type":"function","name":"Y_TOKEN","inputs":[],"outputs":[{"name":"","type":"address","internalType":"contract IERC20"}],"stateMutability":"view"},{"type":"function","name":"arbBuyAndQueue","inputs":[{"name":"maxQuoteIn","type":"uint256","internalType":"uint256"},{"name":"minYOut","type":"uint256","internalType":"uint256"},{"name":"deadline","type":"uint256","internalType":"uint256"}],"outputs":[{"name":"unlockAt","type":"uint256","internalType":"uint256"}],"stateMutability":"nonpayable"},{"type":"function","name":"arbBuyThenRedeem","inputs":[{"name":"maxQuoteIn","type":"uint256","internalType":"uint256"},{"name":"minYOut","type":"uint256","internalType":"uint256"},{"name":"minBaseOut","type":"uint256","internalType":"uint256"},{"name":"deadline","type":"uint256","internalType":"uint256"}],"outputs":[{"name":"pnlBase","type":"int256","internalType":"int256"}],"stateMutability":"nonpayable"},{"type":"function","name":"arbMintThenSell","inputs":[{"name":"maxBaseToMint","type":"uint256","internalType":"uint256"},{"name":"minYShares","type":"uint256","internalType":"uint256"},{"name":"minQuoteOut","type":"uint256","internalType":"uint256"},{"name":"deadline","type":"uint256","internalType":"uint256"}],"outputs":[{"name":"pnlBase","type":"int256","internalType":"int256"}],"stateMutability":"nonpayable"},{"type":"function","name":"completeQueuedRedeem","inputs":[{"name":"minBaseOut","type":"uint256","internalType":"uint256"}],"outputs":[{"name":"pnlBase","type":"int256","internalType":"int256"}],"stateMutability":"nonpayable"},{"type":"function","name":"getPendingWithdrawal","inputs":[],"outputs":[{"name":"shares","type":"uint256","internalType":"uint256"},{"name":"unlockAt","type":"uint256","internalType":"uint256"},{"name":"isReady","type":"bool","internalType":"bool"}],"stateMutability":"view"},{"type":"function","name":"owner","inputs":[],"outputs":[{"name":"","type":"address","internalType":"address"}],"stateMutability":"view"},{"type":"function","name":"paused","inputs":[],"outputs":[{"name":"","type":"bool","internalType":"bool"}],"stateMutability":"view"},{"type":"function","name":"poolId","inputs":[],"outputs":[{"name":"","type":"bytes32","internalType":"bytes32"}],"stateMutability":"view"},{"type":"function","name":"poolKey","inputs":[],"outputs":[{"name":"currency0","type":"address","internalType":"Currency"},{"name":"currency1","type":"address","internalType":"Currency"},{"name":"fee","type":"uint24","internalType":"uint24"},{"name":"tickSpacing","type":"int24","internalType":"int24"},{"name":"hooks","type":"address","internalType":"contract IHooks"}],"stateMutability":"view"},{"type":"function","name":"refreshApprovals","inputs":[],"outputs":[],"stateMutability":"nonpayable"},{"type":"function","name":"router","inputs":[],"outputs":[{"name":"","type":"address","internalType":"contract ITestSwapRouter"}],"stateMutability":"view"},{"type":"function","name":"setOwner","inputs":[{"name":"n","type":"address","internalType":"address"}],"outputs":[],"stateMutability":"nonpayable"},{"type":"function","name":"setPaused","inputs":[{"name":"on","type":"bool","internalType":"bool"}],"outputs":[],"stateMutability":"nonpayable"},{"type":"function","name":"setPoolKeyFromTokens","inputs":[{"name":"a","type":"address","internalType":"address"},{"name":"b","type":"address","internalType":"address"},{"name":"fee","type":"uint24","internalType":"uint24"},{"name":"tickSpacing","type":"int24","internalType":"int24"},{"name":"hooks","type":"address","internalType":"contract IHooks"}],"outputs":[],"stateMutability":"nonpayable"},{"type":"function","name":"setRouter","inputs":[{"name":"r","type":"address","internalType":"address"}],"outputs":[],"stateMutability":"nonpayable"},{"type":"function","name":"sweep","inputs":[{"name":"token","type":"address","internalType":"address"},{"name":"to","type":"address","internalType":"address"},{"name":"amount","type":"uint256","internalType":"uint256"}],"outputs":[],"stateMutability":"nonpayable"},{"type":"event","name":"ApprovalsRefreshed","inputs":[],"anonymous":false},{"type":"event","name":"CompletedQueuedRedeem","inputs":[{"name":"requestId","type":"uint256","indexed":false,"internalType":"uint256"},{"name":"baseOut","type":"uint256","indexed":false,"internalType":"uint256"},{"name":"pnlBase","type":"int256","indexed":false,"internalType":"int256"}],"anonymous":false},{"type":"event","name":"ExecutedBuyAndQueue","inputs":[{"name":"baseSpent","type":"uint256","indexed":false,"internalType":"uint256"},{"name":"yBought","type":"uint256","indexed":false,"internalType":"uint256"},{"name":"unlockAt","type":"uint256","indexed":false,"internalType":"uint256"}],"anonymous":false},{"type":"event","name":"ExecutedBuyThenRedeem","inputs":[{"name":"baseSpent","type":"uint256","indexed":false,"internalType":"uint256"},{"name":"yBought","type":"uint256","indexed":false,"internalType":"uint256"},{"name":"baseOut","type":"uint256","indexed":false,"internalType":"uint256"},{"name":"pnlBase","type":"int256","indexed":false,"internalType":"int256"}],"anonymous":false},{"type":"event","name":"ExecutedMintThenSell","inputs":[{"name":"baseIn","type":"uint256","indexed":false,"internalType":"uint256"},{"name":"yMinted","type":"uint256","indexed":false,"internalType":"uint256"},{"name":"baseOut","type":"uint256","indexed":false,"internalType":"uint256"},{"name":"pnlBase","type":"int256","indexed":false,"internalType":"int256"}],"anonymous":false},{"type":"event","name":"OwnerUpdated","inputs":[{"name":"newOwner","type":"address","indexed":true,"internalType":"address"}],"anonymous":false},{"type":"event","name":"PausedSet","inputs":[{"name":"on","type":"bool","indexed":false,"internalType":"bool"}],"anonymous":false},{"type":"event","name":"PoolKeyUpdated","inputs":[{"name":"key","type":"tuple","indexed":false,"internalType":"struct PoolKey","components":[{"name":"currency0","type":"address","internalType":"Currency"},{"name":"currency1","type":"address","internalType":"Currency"},{"name":"fee","type":"uint24","internalType":"uint24"},{"name":"tickSpacing","type":"int24","internalType":"int24"},{"name":"hooks","type":"address","internalType":"contract IHooks"}]}],"anonymous":false},{"type":"event","name":"RouterUpdated","inputs":[{"name":"newRouter","type":"address","indexed":true,"internalType":"address"}],"anonymous":false},{"type":"error","name":"BadConfig","inputs":[]},{"type":"error","name":"Deadline","inputs":[]},{"type":"error","name":"MinOut","inputs":[]},{"type":"error","name":"NoProfit","inputs":[]},{"type":"error","name":"NotOwner","inputs":[]},{"type":"error","name":"NotRequestOwner","inputs":[]},{"type":"error","name":"Paused","inputs":[]},{"type":"error","name":"PoolKeyMismatch","inputs":[]},{"type":"error","name":"RequestNotFound","inputs":[]},{"type":"error","name":"WithdrawalNotUnlocked","inputs":[]}],"bytecode":{"object":"0x60e060405234610138576100206100146102d2565b95949094939193610786565b61002861013d565b613a1a610de18239608051818181610a0a0152818161146a0152818161202e015281816120af015281816122ec0152818161287901528181612afd01528181612cc801528181613134015281816132e00152818161357c0152818161369e0152613744015260a051818181610983015281816114a40152818161157a015281816120e9015281816121bf015281816128a401528181613247015281816135a5015281816136f1015261377f015260c051818181610497015281816116090152818161167d01528181611c8d01528181611d010152818161224e01528181612a5a01528181612b7001528181612be501528181612c4a015281816131a3015281816136c201526137150152613a1a90f35b610143565b60405190565b5f80fd5b601f801991011690565b634e487b7160e01b5f52604160045260245ffd5b9061016f90610147565b810190811060018060401b0382111761018757604052565b610151565b9061019f61019861013d565b9283610165565b565b5f80fd5b60018060a01b031690565b6101b9906101a5565b90565b6101c5816101b0565b036101cc57565b5f80fd5b905051906101dd826101bc565b565b62ffffff1690565b6101f0816101df565b036101f757565b5f80fd5b90505190610208826101e7565b565b60020b90565b6102198161020a565b0361022057565b5f80fd5b9050519061023182610210565b565b61023c906101b0565b90565b61024881610233565b0361024f57565b5f80fd5b905051906102608261023f565b565b60e0818303126102cd57610278825f83016101d0565b9261028683602084016101d0565b9261029481604085016101d0565b926102a282606083016101d0565b926102ca6102b384608085016101fb565b936102c18160a08601610224565b9360c001610253565b90565b6101a1565b6102f06147fb803803806102e58161018c565b928339810190610262565b90919293949596565b90565b90565b61031361030e610318926102f9565b6102fc565b6101a5565b90565b610324906102ff565b90565b5f0190565b5f1b90565b9061034260018060a01b039161032c565b9181191691161790565b61036061035b610365926101a5565b6102fc565b6101a5565b90565b6103719061034c565b90565b61037d90610368565b90565b90565b9061039861039361039f92610374565b610380565b8254610331565b9055565b6103ac9061034c565b90565b6103b8906103a3565b90565b6103c49061034c565b90565b6103d0906103bb565b90565b6103dc9061034c565b90565b6103e8906103d3565b90565b6103f4906103d3565b90565b90565b9061040f61040a610416926103eb565b6103f7565b8254610331565b9055565b61042490516101b0565b90565b90565b9061043f61043a61044692610374565b610427565b8254610331565b9055565b61045490516101df565b90565b60a01b90565b9061046e62ffffff60a01b91610457565b9181191691161790565b61048c610487610491926101df565b6102fc565b6101df565b90565b90565b906104ac6104a76104b392610478565b610494565b825461045d565b9055565b6104c1905161020a565b90565b60b81b90565b906104db62ffffff60b81b916104c4565b9181191691161790565b6104f96104f46104fe9261020a565b6102fc565b61020a565b90565b90565b90610519610514610520926104e5565b610501565b82546104ca565b9055565b61052e9051610233565b90565b61053a9061034c565b90565b61054690610531565b90565b90565b9061056161055c6105689261053d565b610549565b8254610331565b9055565b906105e2608060026105e89461058f5f82016105895f880161041a565b9061042a565b6105a8600182016105a26020880161041a565b9061042a565b6105c1600182016105bb6040880161044a565b90610497565b6105da600182016105d4606088016104b7565b90610504565b019201610524565b9061054c565b565b906105f49161056c565b565b5f1c90565b60018060a01b031690565b610612610617916105f6565b6105fb565b90565b6106249054610606565b90565b90610631906101b0565b9052565b60a01c90565b62ffffff1690565b61064f61065491610635565b61063b565b90565b6106619054610643565b90565b9061066e906101df565b9052565b60b81c90565b60020b90565b61068a61068f91610672565b610678565b90565b61069c905461067e565b90565b906106a99061020a565b9052565b60018060a01b031690565b6106c46106c9916105f6565b6106ad565b90565b6106d690546106b8565b90565b906106e390610233565b9052565b6106f160a061018c565b90565b9061077361076a60026107056106e7565b9461071c6107145f830161061a565b5f8801610627565b61073461072b6001830161061a565b60208801610627565b61074c61074360018301610657565b60408801610664565b61076461075b60018301610692565b6060880161069f565b016106cc565b608084016106d9565b565b61077e906106f4565b90565b151590565b959295949194939093806107aa6107a461079f5f61031b565b6101b0565b916101b0565b1480156108c1575b801561089f575b801561087d575b6108615761080b61080561081c986107fd610815996107e0336004610383565b6107e9866103af565b6080526107f58a6103af565b60a0526103c7565b60c0526103df565b5f6103fa565b9390919293610955565b60016105ea565b61083761083161082c6001610775565b6109f1565b15610781565b61084557610843610b2e565b565b5f636b8fd8f360e01b81528061085d60048201610327565b0390fd5b5f6301f30c8760e21b81528061087960048201610327565b0390fd5b508661089961089361088e5f61031b565b6101b0565b916101b0565b146107c0565b50856108bb6108b56108b05f61031b565b6101b0565b916101b0565b146107b9565b50846108dd6108d76108d25f61031b565b6101b0565b916101b0565b146107b2565b5f90565b5f90565b5f90565b5f90565b6108fb6106e7565b906020808080808661090b6108e3565b8152016109166108e3565b8152016109216108e7565b81520161092c6108eb565b8152016109376108ef565b81525050565b6109456108f3565b90565b61095260a061018c565b90565b936109b36109c5946109aa61098961097c6109bc966109839a61097661093d565b50610bfc565b9990610374565b98610374565b959193956109a1610998610948565b995f8b01610627565b60208901610627565b60408701610664565b6060850161069f565b608083016106d9565b90565b5f90565b6109d5906101b0565b90565b6109e290516109cc565b90565b6109ee90610368565b90565b6109f96109c8565b50610a21610a1c6020610a15610a105f860161041a565b610374565b930161041a565b610374565b610a33610a2e60806109d8565b6109e5565b610a45610a4060a06109d8565b6109e5565b83610a58610a52846101b0565b916101b0565b1480610ab7575b938415610a6e575b5050505090565b610a869192939450610a8090926101b0565b916101b0565b149182610a99575b50505f808080610a67565b610aaf919250610aa990926101b0565b916101b0565b145f80610a8e565b5082610acb610ac5836101b0565b916101b0565b14610a5f565b610ada906101b0565b90565b610ae79051610ad1565b90565b610af390610368565b90565b60018060a01b031690565b610b0d610b12916105f6565b610af6565b90565b610b1f9054610b01565b90565b610b2b90610368565b90565b610b53610b3b60806109d8565b610b4d610b4860c0610add565b610aea565b90610d55565b610b78610b6060a06109d8565b610b72610b6d60c0610add565b610aea565b90610d55565b610b9c610b8560806109d8565b610b96610b915f610b15565b610b22565b90610d55565b610bc0610ba960a06109d8565b610bba610bb55f610b15565b610b22565b90610d55565b7f3aea0c7f8169b9836e3c3e201cc5e2994baa61ae616cd0681a60ae7c9df9c9a6610be961013d565b80610bf381610327565b0390a1565b5f90565b610c04610bf8565b50610c0d610bf8565b5080610c21610c1b846101b0565b916101b0565b105f14610c2e57905b9091565b610c2a565b60e01b90565b610c4281610781565b03610c4957565b5f80fd5b90505190610c5a82610c39565b565b90602082820312610c7557610c72915f01610c4d565b90565b6101a1565b610c83906101b0565b9052565b90565b610c9390610c87565b9052565b916020610cb8929493610cb160408201965f830190610c7a565b0190610c8a565b565b610cc261013d565b3d5f823e3d90fd5b60209181520190565b5f7f617070726f7665206661696c6564000000000000000000000000000000000000910152565b610d07600e602092610cca565b610d1081610cd3565b0190565b610d299060208101905f818303910152610cfa565b90565b15610d3357565b610d3b61013d565b62461bcd60e51b815280610d5160048201610d14565b0390fd5b610d606020916109e5565b63095ea7b39290610d855f801995610d90610d7961013d565b97889687958694610c33565b845260048401610c97565b03925af18015610ddb57610dab915f91610dad575b50610d2c565b565b610dce915060203d8111610dd4575b610dc68183610165565b810190610c5c565b5f610da5565b503d610dbc565b610cba56fe60806040526004361015610013575b610b3c565b61001d5f3561014c565b806313af40351461014757806316c38b3c14610142578063182148ef1461013d5780631c98929b146101385780633e0dc34e14610133578063411557d11461012e57806343d57a6414610129578063480126a8146101245780634b11fdb41461011f578063581869ea1461011a5780635c975abb1461011557806362c06767146101105780638da5cb5b1461010b578063c0d7865514610106578063cd66b28414610101578063e6eae634146100fc578063ec342ad0146100f7578063ee97ab33146100f25763f887ea400361000e57610b07565b610a61565b610a2c565b6109d3565b61094c565b6108fb565b6108c6565b610830565b6107c1565b610733565b610690565b61061a565b61051c565b6104e7565b610460565b610405565b61034a565b610236565b6101bd565b60e01c90565b60405190565b5f80fd5b5f80fd5b60018060a01b031690565b61017490610160565b90565b6101808161016b565b0361018757565b5f80fd5b9050359061019882610177565b565b906020828203126101b3576101b0915f0161018b565b90565b61015c565b5f0190565b346101eb576101d56101d036600461019a565b610c3e565b6101dd610152565b806101e7816101b8565b0390f35b610158565b151590565b6101fe816101f0565b0361020557565b5f80fd5b90503590610216826101f5565b565b906020828203126102315761022e915f01610209565b90565b61015c565b346102645761024e610249366004610218565b610d25565b610256610152565b80610260816101b8565b0390f35b610158565b5f91031261027357565b61015c565b90565b61028f61028a61029492610160565b610278565b610160565b90565b6102a09061027b565b90565b6102ac90610297565b90565b6102b8906102a3565b9052565b62ffffff1690565b6102cd906102bc565b9052565b60020b90565b6102e0906102d1565b9052565b6102ed90610297565b90565b6102f9906102e4565b9052565b90959492610348946103376103419261032d60809661032360a088019c5f8901906102af565b60208701906102af565b60408501906102c4565b60608301906102d7565b01906102f0565b565b3461037e5761035a366004610269565b61037a610365610df4565b91610371959395610152565b958695866102fd565b0390f35b610158565b90565b61038f81610383565b0361039657565b5f80fd5b905035906103a782610386565b565b90916060828403126103de576103db6103c4845f850161039a565b936103d2816020860161039a565b9360400161039a565b90565b61015c565b6103ec90610383565b9052565b9190610403905f602085019401906103e3565b565b346104365761043261042161041b3660046103a9565b91611894565b610429610152565b918291826103f0565b0390f35b610158565b90565b6104479061043b565b9052565b919061045e905f6020850194019061043e565b565b3461049057610470366004610269565b61048c61047b6118ba565b610483610152565b9182918261044b565b0390f35b610158565b7f000000000000000000000000000000000000000000000000000000000000000090565b6104c290610297565b90565b6104ce906104b9565b9052565b91906104e5905f602085019401906104c5565b565b34610517576104f7366004610269565b610513610502610495565b61050a610152565b918291826104d2565b0390f35b610158565b3461054a5761052c366004610269565b610534611931565b61053c610152565b80610546816101b8565b0390f35b610158565b610558816102bc565b0361055f57565b5f80fd5b905035906105708261054f565b565b61057b816102d1565b0361058257565b5f80fd5b9050359061059382610572565b565b61059e9061016b565b90565b6105aa81610595565b036105b157565b5f80fd5b905035906105c2826105a1565b565b919060a083820312610615576105dc815f850161018b565b926105ea826020830161018b565b926106126105fb8460408501610563565b936106098160608601610586565b936080016105b5565b90565b61015c565b3461064c5761063661062d3660046105c4565b93929092611c55565b61063e610152565b80610648816101b8565b0390f35b610158565b61065a906101f0565b9052565b60409061068761068e949695939661067d60608401985f8501906103e3565b60208301906103e3565b0190610651565b565b346106c3576106a0366004610269565b6106bf6106ab611c68565b6106b6939193610152565b9384938461065e565b0390f35b610158565b608081830312610709576106de825f830161039a565b926107066106ef846020850161039a565b936106fd816040860161039a565b9360600161039a565b90565b61015c565b90565b61071a9061070e565b9052565b9190610731905f60208501940190610711565b565b34610767576107636107526107493660046106c8565b929190916125a0565b61075a610152565b9182918261071e565b0390f35b610158565b1c90565b60ff1690565b61078690600861078b930261076c565b610770565b90565b906107999154610776565b90565b6107a9600460149061078e565b90565b91906107bf905f60208501940190610651565b565b346107f1576107d1366004610269565b6107ed6107dc61079c565b6107e4610152565b918291826107ac565b0390f35b610158565b909160608284031261082b57610828610811845f850161018b565b9361081f816020860161018b565b9360400161039a565b90565b61015c565b3461085f576108496108433660046107f6565b9161277e565b610851610152565b8061085b816101b8565b0390f35b610158565b60018060a01b031690565b61087f906008610884930261076c565b610864565b90565b90610892915461086f565b90565b6108a160045f90610887565b90565b6108ad9061016b565b9052565b91906108c4905f602085019401906108a4565b565b346108f6576108d6366004610269565b6108f26108e1610895565b6108e9610152565b918291826108b1565b0390f35b610158565b346109295761091361090e36600461019a565b612928565b61091b610152565b80610925816101b8565b0390f35b610158565b9060208282031261094757610944915f0161039a565b90565b61015c565b3461097c5761097861096761096236600461092e565b612f69565b61096f610152565b9182918261071e565b0390f35b610158565b7f000000000000000000000000000000000000000000000000000000000000000090565b6109ae90610297565b90565b6109ba906109a5565b9052565b91906109d1905f602085019401906109b1565b565b34610a03576109e3366004610269565b6109ff6109ee610981565b6109f6610152565b918291826109be565b0390f35b610158565b7f000000000000000000000000000000000000000000000000000000000000000090565b34610a5c57610a3c366004610269565b610a58610a47610a08565b610a4f610152565b918291826109be565b0390f35b610158565b34610a9557610a91610a80610a773660046106c8565b92919091613530565b610a88610152565b9182918261071e565b0390f35b610158565b60018060a01b031690565b610ab5906008610aba930261076c565b610a9a565b90565b90610ac89154610aa5565b90565b610ad65f5f90610abd565b90565b610ae290610297565b90565b610aee90610ad9565b9052565b9190610b05905f60208501940190610ae5565b565b34610b3757610b17366004610269565b610b33610b22610acb565b610b2a610152565b91829182610af2565b0390f35b610158565b5f80fd5b5f1c90565b610b51610b5691610b40565b610864565b90565b610b639054610b45565b90565b33610b82610b7c610b776004610b59565b61016b565b9161016b565b03610b9257610b9090610bf1565b565b5f6330cd747160e01b815280610baa600482016101b8565b0390fd5b5f1b90565b90610bc460018060a01b0391610bae565b9181191691161790565b90565b90610be6610be1610bed926102a3565b610bce565b8254610bb3565b9055565b610bfc816004610bd1565b610c267f4ffd725fc4a22075e9ec71c59edf9c38cdeb588a91b24fc5b61388c5be41282b916102a3565b90610c2f610152565b80610c39816101b8565b0390a2565b610c4790610b66565b565b33610c65610c5f610c5a6004610b59565b61016b565b9161016b565b03610c7557610c7390610cdf565b565b5f6330cd747160e01b815280610c8d600482016101b8565b0390fd5b60a01b90565b90610ca660ff60a01b91610c91565b9181191691161790565b610cb9906101f0565b90565b90565b90610cd4610ccf610cdb92610cb0565b610cbc565b8254610c97565b9055565b610cea816004610cbf565b610d207f40db37ff5c0bdc2c427fbb2078c8f24afea940abac0e3c23bb4ea3bf2da2b21291610d17610152565b918291826107ac565b0390a1565b610d2e90610c49565b565b5f90565b5f90565b5f90565b5f90565b60018060a01b031690565b610d57610d5c91610b40565b610d40565b90565b610d699054610d4b565b90565b60a01c90565b62ffffff1690565b610d86610d8b91610d6c565b610d72565b90565b610d989054610d7a565b90565b60b81c90565b60020b90565b610db3610db891610d9b565b610da1565b90565b610dc59054610da7565b90565b60018060a01b031690565b610ddf610de491610b40565b610dc8565b90565b610df19054610dd3565b90565b610dfc610d30565b50610e05610d30565b50610e0e610d34565b50610e17610d38565b50610e20610d3c565b50610e2d5f600101610d5f565b90610e3a60018001610d5f565b90610e4760018001610d8e565b90610e5460018001610dbb565b90610e626002600101610de7565b90565b5f90565b92919033610e88610e82610e7d6004610b59565b61016b565b9161016b565b03610e9957610e9693610ed6565b90565b5f6330cd747160e01b815280610eb1600482016101b8565b0390fd5b610ec1610ec691610d6c565b610770565b90565b610ed39054610eb5565b90565b929190610ee36004610ec9565b610ef357610ef093611051565b90565b5f6313d0ff5960e31b815280610f0b600482016101b8565b0390fd5b90565b610f1e610f2391610b40565b610f0f565b90565b610f309054610f12565b90565b90565b610f4a610f45610f4f92610f33565b610278565b610383565b90565b60209181520190565b5f7f5245454e5452414e435900000000000000000000000000000000000000000000910152565b610f8f600a602092610f52565b610f9881610f5b565b0190565b610fb19060208101905f818303910152610f82565b90565b15610fbb57565b610fc3610152565b62461bcd60e51b815280610fd960048201610f9c565b0390fd5b90565b610ff4610fef610ff992610fdd565b610278565b610383565b90565b906110085f1991610bae565b9181191691161790565b61102661102161102b92610383565b610278565b610383565b90565b90565b9061104661104161104d92611012565b61102e565b8254610ffc565b9055565b9061109693929161107d6110656005610f26565b6110776110715f610f36565b91610383565b14610fb4565b61109161108a6001610fe0565b6005611031565b6113ff565b906110aa6110a35f610f36565b6005611031565b565b906110b69061016b565b9052565b906110c4906102bc565b9052565b906110d2906102d1565b9052565b906110e090610595565b9052565b601f801991011690565b634e487b7160e01b5f52604160045260245ffd5b9061110c906110e4565b810190811067ffffffffffffffff82111761112657604052565b6110ee565b9061113e611137610152565b9283611102565b565b61114a60a061112b565b90565b906111cc6111c3600261115e611140565b9461117561116d5f8301610d5f565b5f88016110ac565b61118d61118460018301610d5f565b602088016110ac565b6111a561119c60018301610d8e565b604088016110ba565b6111bd6111b460018301610dbb565b606088016110c8565b01610de7565b608084016110d6565b565b6111d79061114d565b90565b6111e390610297565b90565b5f80fd5b60e01b90565b905051906111fd82610386565b565b9060208282031261121857611215915f016111f0565b90565b61015c565b611225610152565b3d5f823e3d90fd5b61123961123e91610b40565b610a9a565b90565b61124b905461122d565b90565b611257906102a3565b9052565b611264906102bc565b9052565b611271906102d1565b9052565b61127e906102e4565b9052565b9060806112f360026112fb946112a661129d5f830154610d4b565b5f87019061124e565b6112ec6112e260018301546112c76112bd82610d4b565b60208a019061124e565b6112dd6112d382610d7a565b60408a019061125b565b610da7565b6060870190611268565b0154610dd3565b910190611275565b565b60209181520190565b6113115f80926112fd565b0190565b9161137c91611362611383979998966113586101409761134e611370966113446101608b01975f8c01906103e3565b60208a01906103e3565b6040880190610651565b6060860190611282565b838103610100850152611306565b966101208301906108a4565b01906103e3565b565b634e487b7160e01b5f52601160045260245ffd5b6113a86113ae91939293610383565b92610383565b82039182116113b957565b611385565b5f9103126113c857565b61015c565b6040906113f66113fd94969593966113ec60608401985f8501906103e3565b60208301906103e3565b01906103e3565b565b93929093504261141761141183610383565b91610383565b11611878578361142f6114295f610f36565b91610383565b1461185c5761144f61144961144460016111ce565b613547565b156101f0565b611840576114996114625f600101610d5f565b61149361148e7f00000000000000000000000000000000000000000000000000000000000000006109a5565b6102a3565b90613655565b906114fa60206114c87f00000000000000000000000000000000000000000000000000000000000000006109a5565b6370a08231906114ef6114da306111da565b926114e3610152565b958694859384936111ea565b8352600483016108b1565b03915afa801561183b576020915f9161180e575b509161152161151c5f611241565b610ad9565b6115535f63b1a0d57161155e8b958a9990600161153d306111da565b9192611547610152565b9c8d9a8b998a986111ea565b885260048801611315565b03925af1918215611809576115d0926117dd575b50602061159e7f00000000000000000000000000000000000000000000000000000000000000006109a5565b6370a08231906115c56115b0306111da565b926115b9610152565b968794859384936111ea565b8352600483016108b1565b03915afa80156117d8576115eb925f916117aa575b50611399565b906115ff6115f98392610383565b91610383565b1061178e5761162d7f00000000000000000000000000000000000000000000000000000000000000006104b9565b637e108d5282823b1561178957611663926116585f809461164c610152565b968795869485936111ea565b8352600483016103f0565b03925af1801561178457611758575b506116d360206116a17f00000000000000000000000000000000000000000000000000000000000000006104b9565b63ef79537f906116c86116b3306111da565b926116bc610152565b958694859384936111ea565b8352600483016108b1565b03915afa908115611753575f91611725575b50929083916117207fb70fd27f36ebc5216ca65aafa76ea4c71a751dfd94c740ff62c89ab16e222c4893611717610152565b938493846113cd565b0390a1565b611746915060203d811161174c575b61173e8183611102565b8101906111ff565b5f6116e5565b503d611734565b61121d565b611777905f3d811161177d575b61176f8183611102565b8101906113be565b5f611672565b503d611765565b61121d565b6111e6565b5f63168f8aad60e01b8152806117a6600482016101b8565b0390fd5b6117cb915060203d81116117d1575b6117c38183611102565b8101906111ff565b5f6115e5565b503d6117b9565b61121d565b6117fd9060203d8111611802575b6117f58183611102565b8101906111ff565b611572565b503d6117eb565b61121d565b61182e9150823d8111611834575b6118268183611102565b8101906111ff565b5f61150e565b503d61181c565b61121d565b5f636b8fd8f360e01b815280611858600482016101b8565b0390fd5b5f6301f30c8760e21b815280611874600482016101b8565b0390fd5b5f63637910d560e11b815280611890600482016101b8565b0390fd5b906118a792916118a2610e65565b610e69565b90565b5f90565b6118b79061043b565b90565b6118c26118aa565b506118dd6118d86118d360016111ce565b613689565b6118ae565b90565b336118fc6118f66118f16004610b59565b61016b565b9161016b565b0361190b57611909611927565b565b5f6330cd747160e01b815280611923600482016101b8565b0390fd5b61192f613699565b565b6119396118e0565b565b939291903361195b6119556119506004610b59565b61016b565b9161016b565b0361196b5761196994611bcc565b565b5f6330cd747160e01b815280611983600482016101b8565b0390fd5b611991905161016b565b90565b90565b906119ac6119a76119b3926102a3565b611994565b8254610bb3565b9055565b6119c190516102bc565b90565b906119d562ffffff60a01b91610c91565b9181191691161790565b6119f36119ee6119f8926102bc565b610278565b6102bc565b90565b90565b90611a13611a0e611a1a926119df565b6119fb565b82546119c4565b9055565b611a2890516102d1565b90565b60b81b90565b90611a4262ffffff60b81b91611a2b565b9181191691161790565b611a60611a5b611a65926102d1565b610278565b6102d1565b90565b90565b90611a80611a7b611a8792611a4c565b611a68565b8254611a31565b9055565b611a959051610595565b90565b611aa19061027b565b90565b611aad90611a98565b90565b90565b90611ac8611ac3611acf92611aa4565b611ab0565b8254610bb3565b9055565b90611b4960806002611b4f94611af65f8201611af05f8801611987565b90611997565b611b0f60018201611b0960208801611987565b90611997565b611b2860018201611b22604088016119b7565b906119fe565b611b4160018201611b3b60608801611a1e565b90611a6b565b019201611a8b565b90611ab3565b565b90611b5b91611ad3565b565b90608080611bb593611b755f8201515f86019061124e565b611b876020820151602086019061124e565b611b996040820151604086019061125b565b611bab60608201516060860190611268565b0151910190611275565b565b9190611bca905f60a08501940190611b5d565b565b91611bdd949293919091929361385f565b611bef611be982613547565b156101f0565b611c3957611bfe816001611b51565b611c347f296ba97753bd1260f11251341a34258bb5f591efe59b6bca30da786c7362bf0b91611c2b610152565b91829182611bb7565b0390a1565b5f636b8fd8f360e01b815280611c51600482016101b8565b0390fd5b90611c629493929161193b565b565b5f90565b611c70610e65565b50611c79610e65565b50611c82611c64565b50611ce36020611cb17f00000000000000000000000000000000000000000000000000000000000000006104b9565b632d9d533690611cd8611cc3306111da565b92611ccc610152565b958694859384936111ea565b8352600483016108b1565b03915afa908115611e04575f91611dd6575b5090611d576020611d257f00000000000000000000000000000000000000000000000000000000000000006104b9565b63ef79537f90611d4c611d37306111da565b92611d40610152565b958694859384936111ea565b8352600483016108b1565b03915afa908115611dd1575f91611da3575b509081611d7e611d785f610f36565b91610383565b1180611d88575b90565b5042611d9c611d9684610383565b91610383565b1015611d85565b611dc4915060203d8111611dca575b611dbc8183611102565b8101906111ff565b5f611d69565b503d611db2565b61121d565b611df7915060203d8111611dfd575b611def8183611102565b8101906111ff565b5f611cf5565b503d611de5565b61121d565b5f90565b9392919033611e2d611e27611e226004610b59565b61016b565b9161016b565b03611e3e57611e3b94611e5a565b90565b5f6330cd747160e01b815280611e56600482016101b8565b0390fd5b93929190611e686004610ec9565b611e7857611e7594611e94565b90565b5f6313d0ff5960e31b815280611e90600482016101b8565b0390fd5b90611eda94939291611ec1611ea96005610f26565b611ebb611eb55f610f36565b91610383565b14610fb4565b611ed5611ece6001610fe0565b6005611031565b611fcd565b90611eee611ee75f610f36565b6005611031565b565b604090611f19611f209496959396611f0f60608401985f8501906103e3565b60208301906108a4565b01906108a4565b565b611f36611f31611f3b92610383565b610278565b61070e565b90565b611f4d611f539193929361070e565b9261070e565b91828103925f828512818312169285139112151617611f6e57565b611385565b611f87611f82611f8c92610f33565b610278565b61070e565b90565b611fc4611fcb94611fba606094989795611fb0608086019a5f8701906103e3565b60208501906103e3565b60408301906103e3565b0190610711565b565b949390949291925042611fe8611fe283610383565b91610383565b116125845784612000611ffa5f610f36565b91610383565b146125685761202061201a61201560016111ce565b613547565b156101f0565b61254c5761208460206120527f00000000000000000000000000000000000000000000000000000000000000006109a5565b6370a0823190612079612064306111da565b9261206d610152565b958694859384936111ea565b8352600483016108b1565b03915afa908115612547575f91612519575b50906120de6120a75f600101610d5f565b6120d86120d37f00000000000000000000000000000000000000000000000000000000000000006109a5565b6102a3565b90613655565b9061213f602061210d7f00000000000000000000000000000000000000000000000000000000000000006109a5565b6370a082319061213461211f306111da565b92612128610152565b958694859384936111ea565b8352600483016108b1565b03915afa8015612514576020915f916124e7575b50916121666121615f611241565b610ad9565b6121985f63b1a0d5716121a38d958c99906001612182306111da565b919261218c610152565b9c8d9a8b998a986111ea565b885260048801611315565b03925af19182156124e257612215926124b6575b5060206121e37f00000000000000000000000000000000000000000000000000000000000000006109a5565b6370a082319061220a6121f5306111da565b926121fe610152565b968794859384936111ea565b8352600483016108b1565b03915afa80156124b157612230925f91612483575b50611399565b9261224461223e8592610383565b91610383565b10612467576122727f00000000000000000000000000000000000000000000000000000000000000006104b9565b602063ba0876529185906122aa5f612289306111da565b956122b5612296306111da565b61229e610152565b988997889687956111ea565b855260048501611ef0565b03925af1908115612462575f91612434575b50916122dc6122d68492610383565b91610383565b10612418576123429060206123107f00000000000000000000000000000000000000000000000000000000000000006109a5565b6370a0823190612337612322306111da565b9261232b610152565b968794859384936111ea565b8352600483016108b1565b03915afa80156124135761236461236a91612370945f916123e5575b50611f22565b91611f22565b90611f3e565b938461238461237e5f611f73565b9161070e565b13156123c9579190916123c4857f296bfbf990f58938587ab4cfbc9e65942dcaebad6a8ac8cd758f7b0e7816972b946123bb610152565b94859485611f8f565b0390a1565b5f6371cd57f760e11b8152806123e1600482016101b8565b0390fd5b612406915060203d811161240c575b6123fe8183611102565b8101906111ff565b5f61235e565b503d6123f4565b61121d565b5f63168f8aad60e01b815280612430600482016101b8565b0390fd5b612455915060203d811161245b575b61244d8183611102565b8101906111ff565b5f6122c7565b503d612443565b61121d565b5f63168f8aad60e01b81528061247f600482016101b8565b0390fd5b6124a4915060203d81116124aa575b61249c8183611102565b8101906111ff565b5f61222a565b503d612492565b61121d565b6124d69060203d81116124db575b6124ce8183611102565b8101906111ff565b6121b7565b503d6124c4565b61121d565b6125079150823d811161250d575b6124ff8183611102565b8101906111ff565b5f612153565b503d6124f5565b61121d565b61253a915060203d8111612540575b6125328183611102565b8101906111ff565b5f612096565b503d612528565b61121d565b5f636b8fd8f360e01b815280612564600482016101b8565b0390fd5b5f6301f30c8760e21b815280612580600482016101b8565b0390fd5b5f63637910d560e11b81528061259c600482016101b8565b0390fd5b906125b49392916125af611e09565b611e0d565b90565b9190336125d56125cf6125ca6004610b59565b61016b565b9161016b565b036125e5576125e3926126eb565b565b5f6330cd747160e01b8152806125fd600482016101b8565b0390fd5b61260a9061027b565b90565b61261690612601565b90565b90505190612626826101f5565b565b906020828203126126415761263e915f01612619565b90565b61015c565b91602061266792949361266060408201965f8301906108a4565b01906103e3565b565b5f7f7377656570206661696c65640000000000000000000000000000000000000000910152565b61269d600c602092610f52565b6126a681612669565b0190565b6126bf9060208101905f818303910152612690565b90565b156126c957565b6126d1610152565b62461bcd60e51b8152806126e7600482016126aa565b0390fd5b916127006126fb6020939461260d565b6109a5565b6127235f63a9059cbb95939561272e612717610152565b978896879586946111ea565b845260048401612646565b03925af1801561277957612749915f9161274b575b506126c2565b565b61276c915060203d8111612772575b6127648183611102565b810190612628565b5f612743565b503d61275a565b61121d565b9061278992916125b7565b565b336127a76127a161279c6004610b59565b61016b565b9161016b565b036127b7576127b590612842565b565b5f6330cd747160e01b8152806127cf600482016101b8565b0390fd5b6127e76127e26127ec92610f33565b610278565b610160565b90565b6127f8906127d3565b90565b6128049061027b565b90565b612810906127fb565b90565b61281c906127fb565b90565b90565b9061283761283261283e92612813565b61281f565b8254610bb3565b9055565b8061285d6128576128525f6127ef565b61016b565b9161016b565b1461290c5761287461286e82612807565b5f612822565b61289f7f00000000000000000000000000000000000000000000000000000000000000008290613954565b6128ca7f00000000000000000000000000000000000000000000000000000000000000008290613954565b6128f47f7aed1d3e8155a07ccf395e44ea3109a0e2d6c9b29bbbe9f142d9790596f4dc80916102a3565b906128fd610152565b80612907816101b8565b0390a2565b5f6301f30c8760e21b815280612924600482016101b8565b0390fd5b6129319061278b565b565b903361295061294a6129456004610b59565b61016b565b9161016b565b036129615761295e9161297d565b90565b5f6330cd747160e01b815280612979600482016101b8565b0390fd5b906129886004610ec9565b61299857612995916129b4565b90565b5f6313d0ff5960e31b8152806129b0600482016101b8565b0390fd5b906129f7916129de6129c66005610f26565b6129d86129d25f610f36565b91610383565b14610fb4565b6129f26129eb6001610fe0565b6005611031565b612a4c565b90612a0b612a045f610f36565b6005611031565b565b612a1690610f36565b9052565b604090612a43612a4a9496959396612a3960608401985f850190612a0d565b60208301906103e3565b0190610711565b565b91909150612ab06020612a7e7f00000000000000000000000000000000000000000000000000000000000000006104b9565b63ef79537f90612aa5612a90306111da565b92612a99610152565b958694859384936111ea565b8352600483016108b1565b03915afa908115612f64575f91612f36575b5080612ad6612ad05f610f36565b91610383565b14612f1a57612aee612ae84292610383565b91610383565b10612efe57612b536020612b217f00000000000000000000000000000000000000000000000000000000000000006109a5565b6370a0823190612b48612b33306111da565b92612b3c610152565b958694859384936111ea565b8352600483016108b1565b03915afa908115612ef9575f91612ecb575b50612bc66020612b947f00000000000000000000000000000000000000000000000000000000000000006104b9565b632d9d533690612bbb612ba6306111da565b92612baf610152565b958694859384936111ea565b8352600483016108b1565b03915afa908115612ec657612c30916020915f91612e99575b50612c097f00000000000000000000000000000000000000000000000000000000000000006104b9565b612c256307a2d13a612c19610152565b958694859384936111ea565b8352600483016103f0565b03915afa908115612e94575f91612e66575b506020612c6e7f00000000000000000000000000000000000000000000000000000000000000006104b9565b63b460af949290612ca35f612c82306111da565b95612cae612c8f306111da565b612c97610152565b988997889687956111ea565b855260048501611ef0565b03925af18015612e6157612e35575b50612d1e6020612cec7f00000000000000000000000000000000000000000000000000000000000000006109a5565b6370a0823190612d13612cfe306111da565b92612d07610152565b958694859384936111ea565b8352600483016108b1565b03915afa908115612e30575f91612e02575b5090612d3d828290611399565b93612d51612d4b8692610383565b91610383565b10612de657612d6b612d65612d7193611f22565b91611f22565b90611f3e565b9182612d85612d7f5f611f73565b9161070e565b1315612dca575f908391612dc57fd79ba778c94c0e667caccab79f65bc951c94845a94f22f0964811e97f47d38d193612dbc610152565b93849384612a1a565b0390a1565b5f6371cd57f760e11b815280612de2600482016101b8565b0390fd5b5f63168f8aad60e01b815280612dfe600482016101b8565b0390fd5b612e23915060203d8111612e29575b612e1b8183611102565b8101906111ff565b5f612d30565b503d612e11565b61121d565b612e559060203d8111612e5a575b612e4d8183611102565b8101906111ff565b612cbd565b503d612e43565b61121d565b612e87915060203d8111612e8d575b612e7f8183611102565b8101906111ff565b5f612c42565b503d612e75565b61121d565b612eb99150823d8111612ebf575b612eb18183611102565b8101906111ff565b5f612bdf565b503d612ea7565b61121d565b612eec915060203d8111612ef2575b612ee48183611102565b8101906111ff565b5f612b65565b503d612eda565b61121d565b5f637a90e3bf60e01b815280612f16600482016101b8565b0390fd5b5f632589d98f60e11b815280612f32600482016101b8565b0390fd5b612f57915060203d8111612f5d575b612f4f8183611102565b8101906111ff565b5f612ac2565b503d612f45565b61121d565b612f7a90612f75611e09565b612933565b90565b9392919033612f9d612f97612f926004610b59565b61016b565b9161016b565b03612fae57612fab94612fca565b90565b5f6330cd747160e01b815280612fc6600482016101b8565b0390fd5b93929190612fd86004610ec9565b612fe857612fe594613004565b90565b5f6313d0ff5960e31b815280613000600482016101b8565b0390fd5b9061304a949392916130316130196005610f26565b61302b6130255f610f36565b91610383565b14610fb4565b61304561303e6001610fe0565b6005611031565b6130d4565b9061305e6130575f610f36565b6005611031565b565b91602061308192949361307a60408201965f8301906103e3565b01906108a4565b565b6130926130989193929361070e565b9261070e565b808301925f828512158183121692851291121516176130b357565b611385565b6130cc6130c76130d19261070e565b610278565b610383565b90565b94939091929450426130ee6130e883610383565b91610383565b1161351457816131066131005f610f36565b91610383565b146134f85761312661312061311b60016111ce565b613547565b156101f0565b6134dc5761318a60206131587f00000000000000000000000000000000000000000000000000000000000000006109a5565b6370a082319061317f61316a306111da565b92613173610152565b958694859384936111ea565b8352600483016108b1565b03915afa9081156134d7575f916134a9575b50946131c77f00000000000000000000000000000000000000000000000000000000000000006104b9565b6020636e553f659185906131f65f6131de306111da565b956132016131ea610152565b978896879586946111ea565b845260048401613060565b03925af19081156134a4575f91613476575b50936132286132228692610383565b91610383565b1061345a5760209061327661323f5f600101610d5f565b61327061326b7f00000000000000000000000000000000000000000000000000000000000000006109a5565b6102a3565b90613655565b926132bb5f61328c61328782611241565b610ad9565b926132c663b1a0d571918a96989060016132a5306111da565b91926132af610152565b9b8c9a8b998a986111ea565b885260048801611315565b03925af1801561345557613429575b5061333660206133047f00000000000000000000000000000000000000000000000000000000000000006109a5565b6370a082319061332b613316306111da565b9261331f610152565b958694859384936111ea565b8352600483016108b1565b03915afa9081156134245761336591613356915f916133f6575b50611f22565b61335f86611f22565b90611f3e565b93846133796133735f611f73565b9161070e565b13156133da5761339561338e61339a92611f22565b8690613083565b6130b8565b909190916133d5857f7d00b35e7885f94fd570b70c16469c55e3a3963db24bed41dc8c30a10ce34d16946133cc610152565b94859485611f8f565b0390a1565b5f6371cd57f760e11b8152806133f2600482016101b8565b0390fd5b613417915060203d811161341d575b61340f8183611102565b8101906111ff565b5f613350565b503d613405565b61121d565b6134499060203d811161344e575b6134418183611102565b8101906111ff565b6132d5565b503d613437565b61121d565b5f63168f8aad60e01b815280613472600482016101b8565b0390fd5b613497915060203d811161349d575b61348f8183611102565b8101906111ff565b5f613213565b503d613485565b61121d565b6134ca915060203d81116134d0575b6134c28183611102565b8101906111ff565b5f61319c565b503d6134b8565b61121d565b5f636b8fd8f360e01b8152806134f4600482016101b8565b0390fd5b5f6301f30c8760e21b815280613510600482016101b8565b0390fd5b5f63637910d560e11b81528061352c600482016101b8565b0390fd5b9061354493929161353f611e09565b612f7d565b90565b61354f611c64565b50613577613572602061356b6135665f8601611987565b6102a3565b9301611987565b6102a3565b6135a07f00000000000000000000000000000000000000000000000000000000000000006109a5565b6135c97f00000000000000000000000000000000000000000000000000000000000000006109a5565b836135dc6135d68461016b565b9161016b565b148061363b575b9384156135f2575b5050505090565b61360a9192939450613604909261016b565b9161016b565b14918261361d575b50505f8080806135eb565b61363391925061362d909261016b565b9161016b565b145f80613612565b508261364f6136498361016b565b9161016b565b146135e3565b61367b6136766136706136819361366a611c64565b506102a3565b936102a3565b61016b565b9161016b565b1490565b5f90565b60a090613694613685565b502090565b6136ec7f00000000000000000000000000000000000000000000000000000000000000006136e67f00000000000000000000000000000000000000000000000000000000000000006104b9565b90613954565b61373f7f00000000000000000000000000000000000000000000000000000000000000006137397f00000000000000000000000000000000000000000000000000000000000000006104b9565b90613954565b61377a7f000000000000000000000000000000000000000000000000000000000000000061377461376f5f611241565b610ad9565b90613954565b6137b57f00000000000000000000000000000000000000000000000000000000000000006137af6137aa5f611241565b610ad9565b90613954565b7f3aea0c7f8169b9836e3c3e201cc5e2994baa61ae616cd0681a60ae7c9df9c9a66137de610152565b806137e8816101b8565b0390a1565b5f90565b5f90565b5f90565b5f90565b613805611140565b90602080808080866138156137ed565b8152016138206137ed565b81520161382b6137f1565b8152016138366137f5565b8152016138416137f9565b81525050565b61384f6137fd565b90565b61385c60a061112b565b90565b936138bd6138cf946138b46138936138866138c69661388d9a613880613847565b506139e3565b99906102a3565b986102a3565b959193956138ab6138a2613852565b995f8b016110ac565b602089016110ac565b604087016110ba565b606085016110c8565b608083016110d6565b90565b5f7f617070726f7665206661696c6564000000000000000000000000000000000000910152565b613906600e602092610f52565b61390f816138d2565b0190565b6139289060208101905f8183039101526138f9565b90565b1561393257565b61393a610152565b62461bcd60e51b81528061395060048201613913565b0390fd5b61395f6020916109a5565b63095ea7b392906139845f80199561398f613978610152565b978896879586946111ea565b845260048401612646565b03925af180156139da576139aa915f916139ac575b5061392b565b565b6139cd915060203d81116139d3575b6139c58183611102565b810190612628565b5f6139a4565b503d6139bb565b61121d565b5f90565b6139eb6139df565b506139f46139df565b5080613a08613a028461016b565b9161016b565b105f14613a1557905b9091565b613a1156","linkReferences":{}},"methodIdentifiers":{"BASE()":"ec342ad0","VAULT()":"411557d1","Y_TOKEN()":"e6eae634","arbBuyAndQueue(uint256,uint256,uint256)":"1c98929b","arbBuyThenRedeem(uint256,uint256,uint256,uint256)":"581869ea","arbMintThenSell(uint256,uint256,uint256,uint256)":"ee97ab33","completeQueuedRedeem(uint256)":"cd66b284","getPendingWithdrawal()":"4b11fdb4","owner()":"8da5cb5b","paused()":"5c975abb","poolId()":"3e0dc34e","poolKey()":"182148ef","refreshApprovals()":"43d57a64","router()":"f887ea40","setOwner(address)":"13af4035","setPaused(bool)":"16c38b3c","setPoolKeyFromTokens(address,address,uint24,int24,address)":"480126a8","setRouter(address)":"c0d78655","sweep(address,address,uint256)":"62c06767"},"id":26}