{"abi":[{"type":"constructor","inputs":[{"name":"_poolManager","type":"address","internalType":"contract IPoolManager"},{"name":"vault_","type":"address","internalType":"address"}],"stateMutability":"nonpayable"},{"type":"function","name":"A","inputs":[],"outputs":[{"name":"","type":"address","internalType":"address"}],"stateMutability":"view"},{"type":"function","name":"ARB_TRIGGER_BPS","inputs":[],"outputs":[{"name":"","type":"uint256","internalType":"uint256"}],"stateMutability":"view"},{"type":"function","name":"B","inputs":[],"outputs":[{"name":"","type":"address","internalType":"address"}],"stateMutability":"view"},{"type":"function","name":"BASE_FEE","inputs":[],"outputs":[{"name":"","type":"uint24","internalType":"uint24"}],"stateMutability":"view"},{"type":"function","name":"DEADZONE_BPS","inputs":[],"outputs":[{"name":"","type":"uint256","internalType":"uint256"}],"stateMutability":"view"},{"type":"function","name":"MAX_FEE","inputs":[],"outputs":[{"name":"","type":"uint24","internalType":"uint24"}],"stateMutability":"view"},{"type":"function","name":"MIN_FEE","inputs":[],"outputs":[{"name":"","type":"uint24","internalType":"uint24"}],"stateMutability":"view"},{"type":"function","name":"SLOPE_AWAY","inputs":[],"outputs":[{"name":"","type":"uint256","internalType":"uint256"}],"stateMutability":"view"},{"type":"function","name":"SLOPE_TOWARD","inputs":[],"outputs":[{"name":"","type":"uint256","internalType":"uint256"}],"stateMutability":"view"},{"type":"function","name":"afterAddLiquidity","inputs":[{"name":"sender","type":"address","internalType":"address"},{"name":"key","type":"tuple","internalType":"struct PoolKey","components":[{"name":"currency0","type":"address","internalType":"Currency"},{"name":"currency1","type":"address","internalType":"Currency"},{"name":"fee","type":"uint24","internalType":"uint24"},{"name":"tickSpacing","type":"int24","internalType":"int24"},{"name":"hooks","type":"address","internalType":"contract IHooks"}]},{"name":"params","type":"tuple","internalType":"struct ModifyLiquidityParams","components":[{"name":"tickLower","type":"int24","internalType":"int24"},{"name":"tickUpper","type":"int24","internalType":"int24"},{"name":"liquidityDelta","type":"int256","internalType":"int256"},{"name":"salt","type":"bytes32","internalType":"bytes32"}]},{"name":"delta","type":"int256","internalType":"BalanceDelta"},{"name":"feesAccrued","type":"int256","internalType":"BalanceDelta"},{"name":"hookData","type":"bytes","internalType":"bytes"}],"outputs":[{"name":"","type":"bytes4","internalType":"bytes4"},{"name":"","type":"int256","internalType":"BalanceDelta"}],"stateMutability":"nonpayable"},{"type":"function","name":"afterDonate","inputs":[{"name":"sender","type":"address","internalType":"address"},{"name":"key","type":"tuple","internalType":"struct PoolKey","components":[{"name":"currency0","type":"address","internalType":"Currency"},{"name":"currency1","type":"address","internalType":"Currency"},{"name":"fee","type":"uint24","internalType":"uint24"},{"name":"tickSpacing","type":"int24","internalType":"int24"},{"name":"hooks","type":"address","internalType":"contract IHooks"}]},{"name":"amount0","type":"uint256","internalType":"uint256"},{"name":"amount1","type":"uint256","internalType":"uint256"},{"name":"hookData","type":"bytes","internalType":"bytes"}],"outputs":[{"name":"","type":"bytes4","internalType":"bytes4"}],"stateMutability":"nonpayable"},{"type":"function","name":"afterInitialize","inputs":[{"name":"sender","type":"address","internalType":"address"},{"name":"key","type":"tuple","internalType":"struct PoolKey","components":[{"name":"currency0","type":"address","internalType":"Currency"},{"name":"currency1","type":"address","internalType":"Currency"},{"name":"fee","type":"uint24","internalType":"uint24"},{"name":"tickSpacing","type":"int24","internalType":"int24"},{"name":"hooks","type":"address","internalType":"contract IHooks"}]},{"name":"sqrtPriceX96","type":"uint160","internalType":"uint160"},{"name":"tick","type":"int24","internalType":"int24"}],"outputs":[{"name":"","type":"bytes4","internalType":"bytes4"}],"stateMutability":"nonpayable"},{"type":"function","name":"afterRemoveLiquidity","inputs":[{"name":"sender","type":"address","internalType":"address"},{"name":"key","type":"tuple","internalType":"struct PoolKey","components":[{"name":"currency0","type":"address","internalType":"Currency"},{"name":"currency1","type":"address","internalType":"Currency"},{"name":"fee","type":"uint24","internalType":"uint24"},{"name":"tickSpacing","type":"int24","internalType":"int24"},{"name":"hooks","type":"address","internalType":"contract IHooks"}]},{"name":"params","type":"tuple","internalType":"struct ModifyLiquidityParams","components":[{"name":"tickLower","type":"int24","internalType":"int24"},{"name":"tickUpper","type":"int24","internalType":"int24"},{"name":"liquidityDelta","type":"int256","internalType":"int256"},{"name":"salt","type":"bytes32","internalType":"bytes32"}]},{"name":"delta","type":"int256","internalType":"BalanceDelta"},{"name":"feesAccrued","type":"int256","internalType":"BalanceDelta"},{"name":"hookData","type":"bytes","internalType":"bytes"}],"outputs":[{"name":"","type":"bytes4","internalType":"bytes4"},{"name":"","type":"int256","internalType":"BalanceDelta"}],"stateMutability":"nonpayable"},{"type":"function","name":"afterSwap","inputs":[{"name":"sender","type":"address","internalType":"address"},{"name":"key","type":"tuple","internalType":"struct PoolKey","components":[{"name":"currency0","type":"address","internalType":"Currency"},{"name":"currency1","type":"address","internalType":"Currency"},{"name":"fee","type":"uint24","internalType":"uint24"},{"name":"tickSpacing","type":"int24","internalType":"int24"},{"name":"hooks","type":"address","internalType":"contract IHooks"}]},{"name":"params","type":"tuple","internalType":"struct SwapParams","components":[{"name":"zeroForOne","type":"bool","internalType":"bool"},{"name":"amountSpecified","type":"int256","internalType":"int256"},{"name":"sqrtPriceLimitX96","type":"uint160","internalType":"uint160"}]},{"name":"delta","type":"int256","internalType":"BalanceDelta"},{"name":"hookData","type":"bytes","internalType":"bytes"}],"outputs":[{"name":"","type":"bytes4","internalType":"bytes4"},{"name":"","type":"int128","internalType":"int128"}],"stateMutability":"nonpayable"},{"type":"function","name":"assetDec","inputs":[],"outputs":[{"name":"","type":"uint8","internalType":"uint8"}],"stateMutability":"view"},{"type":"function","name":"assetToken","inputs":[],"outputs":[{"name":"","type":"address","internalType":"address"}],"stateMutability":"view"},{"type":"function","name":"beforeAddLiquidity","inputs":[{"name":"sender","type":"address","internalType":"address"},{"name":"key","type":"tuple","internalType":"struct PoolKey","components":[{"name":"currency0","type":"address","internalType":"Currency"},{"name":"currency1","type":"address","internalType":"Currency"},{"name":"fee","type":"uint24","internalType":"uint24"},{"name":"tickSpacing","type":"int24","internalType":"int24"},{"name":"hooks","type":"address","internalType":"contract IHooks"}]},{"name":"params","type":"tuple","internalType":"struct ModifyLiquidityParams","components":[{"name":"tickLower","type":"int24","internalType":"int24"},{"name":"tickUpper","type":"int24","internalType":"int24"},{"name":"liquidityDelta","type":"int256","internalType":"int256"},{"name":"salt","type":"bytes32","internalType":"bytes32"}]},{"name":"hookData","type":"bytes","internalType":"bytes"}],"outputs":[{"name":"","type":"bytes4","internalType":"bytes4"}],"stateMutability":"nonpayable"},{"type":"function","name":"beforeDonate","inputs":[{"name":"sender","type":"address","internalType":"address"},{"name":"key","type":"tuple","internalType":"struct PoolKey","components":[{"name":"currency0","type":"address","internalType":"Currency"},{"name":"currency1","type":"address","internalType":"Currency"},{"name":"fee","type":"uint24","internalType":"uint24"},{"name":"tickSpacing","type":"int24","internalType":"int24"},{"name":"hooks","type":"address","internalType":"contract IHooks"}]},{"name":"amount0","type":"uint256","internalType":"uint256"},{"name":"amount1","type":"uint256","internalType":"uint256"},{"name":"hookData","type":"bytes","internalType":"bytes"}],"outputs":[{"name":"","type":"bytes4","internalType":"bytes4"}],"stateMutability":"nonpayable"},{"type":"function","name":"beforeInitialize","inputs":[{"name":"sender","type":"address","internalType":"address"},{"name":"key","type":"tuple","internalType":"struct PoolKey","components":[{"name":"currency0","type":"address","internalType":"Currency"},{"name":"currency1","type":"address","internalType":"Currency"},{"name":"fee","type":"uint24","internalType":"uint24"},{"name":"tickSpacing","type":"int24","internalType":"int24"},{"name":"hooks","type":"address","internalType":"contract IHooks"}]},{"name":"sqrtPriceX96","type":"uint160","internalType":"uint160"}],"outputs":[{"name":"","type":"bytes4","internalType":"bytes4"}],"stateMutability":"nonpayable"},{"type":"function","name":"beforeRemoveLiquidity","inputs":[{"name":"sender","type":"address","internalType":"address"},{"name":"key","type":"tuple","internalType":"struct PoolKey","components":[{"name":"currency0","type":"address","internalType":"Currency"},{"name":"currency1","type":"address","internalType":"Currency"},{"name":"fee","type":"uint24","internalType":"uint24"},{"name":"tickSpacing","type":"int24","internalType":"int24"},{"name":"hooks","type":"address","internalType":"contract IHooks"}]},{"name":"params","type":"tuple","internalType":"struct ModifyLiquidityParams","components":[{"name":"tickLower","type":"int24","internalType":"int24"},{"name":"tickUpper","type":"int24","internalType":"int24"},{"name":"liquidityDelta","type":"int256","internalType":"int256"},{"name":"salt","type":"bytes32","internalType":"bytes32"}]},{"name":"hookData","type":"bytes","internalType":"bytes"}],"outputs":[{"name":"","type":"bytes4","internalType":"bytes4"}],"stateMutability":"nonpayable"},{"type":"function","name":"beforeSwap","inputs":[{"name":"sender","type":"address","internalType":"address"},{"name":"key","type":"tuple","internalType":"struct PoolKey","components":[{"name":"currency0","type":"address","internalType":"Currency"},{"name":"currency1","type":"address","internalType":"Currency"},{"name":"fee","type":"uint24","internalType":"uint24"},{"name":"tickSpacing","type":"int24","internalType":"int24"},{"name":"hooks","type":"address","internalType":"contract IHooks"}]},{"name":"params","type":"tuple","internalType":"struct SwapParams","components":[{"name":"zeroForOne","type":"bool","internalType":"bool"},{"name":"amountSpecified","type":"int256","internalType":"int256"},{"name":"sqrtPriceLimitX96","type":"uint160","internalType":"uint160"}]},{"name":"hookData","type":"bytes","internalType":"bytes"}],"outputs":[{"name":"","type":"bytes4","internalType":"bytes4"},{"name":"","type":"int256","internalType":"BeforeSwapDelta"},{"name":"","type":"uint24","internalType":"uint24"}],"stateMutability":"nonpayable"},{"type":"function","name":"currentPrices","inputs":[{"name":"key","type":"tuple","internalType":"struct PoolKey","components":[{"name":"currency0","type":"address","internalType":"Currency"},{"name":"currency1","type":"address","internalType":"Currency"},{"name":"fee","type":"uint24","internalType":"uint24"},{"name":"tickSpacing","type":"int24","internalType":"int24"},{"name":"hooks","type":"address","internalType":"contract IHooks"}]}],"outputs":[{"name":"priceHumanLP","type":"uint256","internalType":"uint256"},{"name":"priceRawE18","type":"uint256","internalType":"uint256"},{"name":"sqrtP","type":"uint160","internalType":"uint160"}],"stateMutability":"view"},{"type":"function","name":"decimals0","inputs":[],"outputs":[{"name":"","type":"uint8","internalType":"uint8"}],"stateMutability":"view"},{"type":"function","name":"decimals1","inputs":[],"outputs":[{"name":"","type":"uint8","internalType":"uint8"}],"stateMutability":"view"},{"type":"function","name":"getHookPermissions","inputs":[],"outputs":[{"name":"","type":"tuple","internalType":"struct Hooks.Permissions","components":[{"name":"beforeInitialize","type":"bool","internalType":"bool"},{"name":"afterInitialize","type":"bool","internalType":"bool"},{"name":"beforeAddLiquidity","type":"bool","internalType":"bool"},{"name":"afterAddLiquidity","type":"bool","internalType":"bool"},{"name":"beforeRemoveLiquidity","type":"bool","internalType":"bool"},{"name":"afterRemoveLiquidity","type":"bool","internalType":"bool"},{"name":"beforeSwap","type":"bool","internalType":"bool"},{"name":"afterSwap","type":"bool","internalType":"bool"},{"name":"beforeDonate","type":"bool","internalType":"bool"},{"name":"afterDonate","type":"bool","internalType":"bool"},{"name":"beforeSwapReturnDelta","type":"bool","internalType":"bool"},{"name":"afterSwapReturnDelta","type":"bool","internalType":"bool"},{"name":"afterAddLiquidityReturnDelta","type":"bool","internalType":"bool"},{"name":"afterRemoveLiquidityReturnDelta","type":"bool","internalType":"bool"}]}],"stateMutability":"pure"},{"type":"function","name":"keyDynamic","inputs":[{"name":"tickSpacing","type":"int24","internalType":"int24"}],"outputs":[{"name":"key","type":"tuple","internalType":"struct PoolKey","components":[{"name":"currency0","type":"address","internalType":"Currency"},{"name":"currency1","type":"address","internalType":"Currency"},{"name":"fee","type":"uint24","internalType":"uint24"},{"name":"tickSpacing","type":"int24","internalType":"int24"},{"name":"hooks","type":"address","internalType":"contract IHooks"}]}],"stateMutability":"view"},{"type":"function","name":"nav1e18","inputs":[],"outputs":[{"name":"","type":"uint256","internalType":"uint256"}],"stateMutability":"view"},{"type":"function","name":"poolManager","inputs":[],"outputs":[{"name":"","type":"address","internalType":"contract IPoolManager"}],"stateMutability":"view"},{"type":"function","name":"previewFee","inputs":[{"name":"key","type":"tuple","internalType":"struct PoolKey","components":[{"name":"currency0","type":"address","internalType":"Currency"},{"name":"currency1","type":"address","internalType":"Currency"},{"name":"fee","type":"uint24","internalType":"uint24"},{"name":"tickSpacing","type":"int24","internalType":"int24"},{"name":"hooks","type":"address","internalType":"contract IHooks"}]},{"name":"zeroForOne","type":"bool","internalType":"bool"}],"outputs":[{"name":"fee","type":"uint24","internalType":"uint24"},{"name":"dbg","type":"tuple","internalType":"struct PegDebug","components":[{"name":"baseFee","type":"uint24","internalType":"uint24"},{"name":"unclampedFee","type":"uint24","internalType":"uint24"},{"name":"clampedFee","type":"uint24","internalType":"uint24"},{"name":"priceHumanLPe18","type":"uint256","internalType":"uint256"},{"name":"priceHumanNAVe18","type":"uint256","internalType":"uint256"},{"name":"devBps","type":"uint256","internalType":"uint256"},{"name":"pctUnits","type":"uint256","internalType":"uint256"},{"name":"toward","type":"bool","internalType":"bool"},{"name":"arbZone","type":"bool","internalType":"bool"}]}],"stateMutability":"view"},{"type":"function","name":"shareDec","inputs":[],"outputs":[{"name":"","type":"uint8","internalType":"uint8"}],"stateMutability":"view"},{"type":"function","name":"sharesIsToken0","inputs":[],"outputs":[{"name":"","type":"bool","internalType":"bool"}],"stateMutability":"view"},{"type":"function","name":"token0","inputs":[],"outputs":[{"name":"","type":"address","internalType":"address"}],"stateMutability":"view"},{"type":"function","name":"token1","inputs":[],"outputs":[{"name":"","type":"address","internalType":"address"}],"stateMutability":"view"},{"type":"function","name":"vault","inputs":[],"outputs":[{"name":"","type":"address","internalType":"contract IERC4626"}],"stateMutability":"view"},{"type":"event","name":"FeeChosen","inputs":[{"name":"rawFee","type":"uint24","indexed":false,"internalType":"uint24"},{"name":"withFlag","type":"uint24","indexed":false,"internalType":"uint24"},{"name":"toward","type":"bool","indexed":false,"internalType":"bool"},{"name":"devBps","type":"uint256","indexed":false,"internalType":"uint256"}],"anonymous":false},{"type":"error","name":"HookNotImplemented","inputs":[]},{"type":"error","name":"MustUseDynamicFee","inputs":[]},{"type":"error","name":"NotPoolManager","inputs":[]}],"bytecode":{"object":"0x6101c06040523461017f5761001b610015610282565b90610685565b610023610184565b613ee161169e823960805181818161120b0152818161159a015281816116140152818161169d01528181611756015281816117de01528181611b8701528181611c1301528181611e77015281816121e701528181612237015281816122c70152612fc7015260a0518181816114d60152818161192e0152818161199b0152818161363e01526136ab015260c0518181816102f601528181611a240152613738015260e05181610408015261010051818181610b0201528181611a5101528181611ac30152818161376501526137e801526101205181818161090c01528181611a7201528181611aa20152818161378601526137c70152610140518181816103760152611db90152610160518181816111b20152611de6015261018051818181610bfd01528181612cf501528181612d5f0152612e1d01526101a051818181610c7701528181612d1c01528181612d800152612dfc0152613ee190f35b61018a565b60405190565b5f80fd5b601f801991011690565b634e487b7160e01b5f52604160045260245ffd5b906101b69061018e565b810190811060018060401b038211176101ce57604052565b610198565b906101e66101df610184565b92836101ac565b565b5f80fd5b60018060a01b031690565b610200906101ec565b90565b61020c906101f7565b90565b61021881610203565b0361021f57565b5f80fd5b905051906102308261020f565b565b61023b816101f7565b0361024257565b5f80fd5b9050519061025382610232565b565b919060408382031261027d578061027161027a925f8601610223565b93602001610246565b90565b6101e8565b6102a061557f80380380610295816101d3565b928339810190610255565b9091565b90565b6102bb6102b66102c0926101ec565b6102a4565b6101ec565b90565b6102cc906102a7565b90565b6102d8906102c3565b90565b6102e4906102a7565b90565b6102f0906102db565b90565b60e01b90565b906020828203126103125761030f915f01610246565b90565b6101e8565b5f0190565b610324610184565b3d5f823e3d90fd5b73b32da9c3d9d0bd24b647af261818739ae303648d90565b7369ecf8893845a267102f3b489a515da697f7049e90565b61036690516101f7565b90565b60209181520190565b5f7f7661756c7420213d20746f6b656e302f31000000000000000000000000000000910152565b6103a66011602092610369565b6103af81610372565b0190565b6103c89060208101905f818303910152610399565b90565b156103d257565b6103da610184565b62461bcd60e51b8152806103f0600482016103b3565b0390fd5b6103fd906102a7565b90565b610409906103f4565b90565b610415906102db565b90565b60ff1690565b61042781610418565b0361042e57565b5f80fd5b9050519061043f8261041e565b565b9060208282031261045a57610457915f01610432565b90565b6101e8565b6104699051610418565b90565b60018060401b0381116104885761048460209161018e565b0190565b610198565b9061049f61049a8361046c565b6101d3565b918252565b5f7f73686172654465633a0000000000000000000000000000000000000000000000910152565b6104d5600961048d565b906104e2602083016104a4565b565b6104ec6104cb565b90565b90565b61050661050161050b92610418565b6102a4565b6104ef565b90565b5f7f61737365744465633a0000000000000000000000000000000000000000000000910152565b61053f600961048d565b9061054c6020830161050e565b565b610556610535565b90565b5f7f746f6b656e303a00000000000000000000000000000000000000000000000000910152565b61058a600761048d565b9061059760208301610559565b565b6105a1610580565b90565b5f7f746f6b656e313a00000000000000000000000000000000000000000000000000910152565b6105d5600761048d565b906105e2602083016105a4565b565b6105ec6105cb565b90565b5f7f646563696d616c73303a00000000000000000000000000000000000000000000910152565b610620600a61048d565b9061062d602083016105ef565b565b610637610616565b90565b5f7f646563696d616c73313a00000000000000000000000000000000000000000000910152565b61066b600a61048d565b906106786020830161063a565b565b610682610661565b90565b906106926106c792610a97565b61069b816102cf565b60a05260206106b16106ac836102cf565b6102e7565b6338d52e0f906106bf610184565b9485926102f3565b825281806106d760048201610317565b03915afa8015610a9257610773925f91610a64575b5060e05261078e602061077861071161070361032c565b61070b610344565b90610be3565b959095948661014052856101605261072a61014061035c565b61073c610736836101f7565b916101f7565b148015610a3b575b61074d906103cb565b61075861014061035c565b61076a610764836101f7565b916101f7565b1460c052610400565b61040c565b63313ce56790610786610184565b9384926102f3565b8252818061079e60048201610317565b03915afa908115610a36575f91610a08575b50610120526107ea60206107d46107cf6107ca60e061035c565b610400565b61040c565b63313ce567906107e2610184565b9384926102f3565b825281806107fa60048201610317565b03915afa908115610a03575f916109d5575b506101005261083d602061082761082285610400565b61040c565b63313ce56790610835610184565b9384926102f3565b8252818061084d60048201610317565b03915afa9081156109d0575f916109a2575b5061018052610890602061087a61087584610400565b61040c565b63313ce56790610888610184565b9384926102f3565b825281806108a060048201610317565b03915afa92831561099d5761092393610916925f9161096f575b506101a0526108e46108cd61012061045f565b6108de6108d86104e4565b916104f2565b90610cfe565b6109096108f261010061045f565b6109036108fd61054e565b916104f2565b90610cfe565b610911610599565b610d73565b61091e6105e4565b610d73565b61094861093161018061045f565b61094261093c61062f565b916104f2565b90610cfe565b61096d6109566101a061045f565b61096761096161067a565b916104f2565b90610cfe565b565b610990915060203d8111610996575b61098881836101ac565b810190610441565b5f6108ba565b503d61097e565b61031c565b6109c3915060203d81116109c9575b6109bb81836101ac565b810190610441565b5f61085f565b503d6109b1565b61031c565b6109f6915060203d81116109fc575b6109ee81836101ac565b810190610441565b5f61080c565b503d6109e4565b61031c565b610a29915060203d8111610a2f575b610a2181836101ac565b810190610441565b5f6107b0565b503d610a17565b61031c565b5061074d610a4a61016061035c565b610a5c610a56846101f7565b916101f7565b149050610744565b610a85915060203d8111610a8b575b610a7d81836101ac565b8101906102f9565b5f6106ec565b503d610a73565b61031c565b610aa090610aab565b610aa930610dcd565b565b608052565b5f90565b5f7f4964656e746963616c0000000000000000000000000000000000000000000000910152565b610ae86009602092610369565b610af181610ab4565b0190565b610b0a9060208101905f818303910152610adb565b90565b15610b1457565b610b1c610184565b62461bcd60e51b815280610b3260048201610af5565b0390fd5b90565b610b4d610b48610b5292610b36565b6102a4565b6101ec565b90565b610b5e90610b39565b90565b5f7f5a65726f00000000000000000000000000000000000000000000000000000000910152565b610b956004602092610369565b610b9e81610b61565b0190565b610bb79060208101905f818303910152610b88565b90565b15610bc157565b610bc9610184565b62461bcd60e51b815280610bdf60048201610ba2565b0390fd5b610beb610ab0565b50610bf4610ab0565b50610c1281610c0b610c05856101f7565b916101f7565b1415610b0d565b80610c2d610c27610c225f610b55565b6101f7565b916101f7565b141580610c63575b610c3e90610bba565b80610c51610c4b846101f7565b916101f7565b105f14610c5e57905b9091565b610c5a565b50610c3e82610c82610c7c610c775f610b55565b6101f7565b916101f7565b14159050610c35565b5190565b90825f9392825e0152565b610cb9610cc2602093610cc793610cb081610c8b565b93848093610369565b95869101610c8f565b61018e565b0190565b610cd4906104ef565b9052565b92916020610cf4610cfc9360408701908782035f890152610c9a565b940190610ccb565b565b90610d39610d3e92610d2a610d11610184565b938492600460208501632d839cb360e21b815201610cd8565b602082018103825203826101ac565b610de9565b565b610d49906101f7565b9052565b92916020610d69610d719360408701908782035f890152610c9a565b940190610d40565b565b90610dae610db392610d9f610d86610184565b93849260046020850163319af33360e01b815201610d4d565b602082018103825203826101ac565b610de9565b565b610dbe906102a7565b90565b610dca90610db5565b90565b610de790610de2610ddc610ef3565b91610dc1565b61126f565b565b610dfc90610df76001611617565b61168b565b565b610e096101c06101d3565b90565b5f90565b60209081808080808080808080808080610e28610dfe565b9e8f610e32610e0c565b815201610e3d610e0c565b815201610e48610e0c565b815201610e53610e0c565b815201610e5e610e0c565b815201610e69610e0c565b815201610e74610e0c565b815201610e7f610e0c565b815201610e8a610e0c565b815201610e95610e0c565b815201610ea0610e0c565b815201610eab610e0c565b815201610eb6610e0c565b815201610ec1610e0c565b81525050565b610ecf610e10565b90565b610edd6101c06101d3565b90565b151590565b90610eef90610ee0565b9052565b610efb610ec7565b5060015f5f5f5f905f60015f5f915f935f955f975f995f9b610f1b610ed2565b809e5f820190610f2a91610ee5565b60200190610f3791610ee5565b60408d0190610f4591610ee5565b60608c0190610f5391610ee5565b60808b0190610f6191610ee5565b60a08a0190610f6f91610ee5565b60c0890190610f7d91610ee5565b60e0880190610f8b91610ee5565b610100870190610f9a91610ee5565b610120860190610fa991610ee5565b610140850190610fb891610ee5565b610160840190610fc791610ee5565b610180830190610fd691610ee5565b6101a0820190610fe591610ee5565b90565b610ff29051610ee0565b90565b90565b61100c61100761101192610ff5565b6102a4565b6101ec565b90565b61101f612000610ff8565b90565b90565b61103961103461103e92611022565b6102a4565b6101ec565b90565b61104c611000611025565b90565b90565b61106661106161106b9261104f565b6102a4565b6101ec565b90565b611079610800611052565b90565b90565b61109361108e6110989261107c565b6102a4565b6101ec565b90565b6110a661040061107f565b90565b90565b6110c06110bb6110c5926110a9565b6102a4565b6101ec565b90565b6110d36102006110ac565b90565b90565b6110ed6110e86110f2926110d6565b6102a4565b6101ec565b90565b6111006101006110d9565b90565b90565b61111a61111561111f92611103565b6102a4565b6101ec565b90565b61112c6080611106565b90565b90565b61114661114161114b9261112f565b6102a4565b6101ec565b90565b6111586040611132565b90565b90565b61117261116d6111779261115b565b6102a4565b6101ec565b90565b611184602061115e565b90565b90565b61119e6111996111a392611187565b6102a4565b6101ec565b90565b6111b0601061118a565b90565b90565b6111ca6111c56111cf926111b3565b6102a4565b6101ec565b90565b6111dc60086111b6565b90565b90565b6111f66111f16111fb926111df565b6102a4565b6101ec565b90565b61120860046111e2565b90565b90565b61122261121d6112279261120b565b6102a4565b6101ec565b90565b611234600261120e565b90565b90565b61124e61124961125392611237565b6102a4565b6101ec565b90565b611260600161123a565b90565b61126c906102db565b90565b9061127b5f8201610fe8565b61129e6112986112938561128d611014565b90611633565b610ee0565b91610ee0565b141580156115b6575b801561157f575b8015611548575b8015611511575b80156114da575b80156114a3575b801561146c575b8015611434575b80156113fc575b80156113c4575b801561138c575b8015611354575b90811561131b575b506113045750565b611315630732d7b560e51b91611263565b90611665565b61132991506101a001610fe8565b61134c6113466113418461133b611256565b90611633565b610ee0565b91610ee0565b14155f6112fc565b506113626101808201610fe8565b61138561137f61137a8561137461122a565b90611633565b610ee0565b91610ee0565b14156112f4565b5061139a6101608201610fe8565b6113bd6113b76113b2856113ac6111fe565b90611633565b610ee0565b91610ee0565b14156112ed565b506113d26101408201610fe8565b6113f56113ef6113ea856113e46111d2565b90611633565b610ee0565b91610ee0565b14156112e6565b5061140a6101208201610fe8565b61142d6114276114228561141c6111a6565b90611633565b610ee0565b91610ee0565b14156112df565b506114426101008201610fe8565b61146561145f61145a8561145461117a565b90611633565b610ee0565b91610ee0565b14156112d8565b5061147960e08201610fe8565b61149c6114966114918561148b61114e565b90611633565b610ee0565b91610ee0565b14156112d1565b506114b060c08201610fe8565b6114d36114cd6114c8856114c2611122565b90611633565b610ee0565b91610ee0565b14156112ca565b506114e760a08201610fe8565b61150a6115046114ff856114f96110f5565b90611633565b610ee0565b91610ee0565b14156112c3565b5061151e60808201610fe8565b61154161153b611536856115306110c8565b90611633565b610ee0565b91610ee0565b14156112bc565b5061155560608201610fe8565b61157861157261156d8561156761109b565b90611633565b610ee0565b91610ee0565b14156112b5565b5061158c60408201610fe8565b6115af6115a96115a48561159e61106e565b90611633565b610ee0565b91610ee0565b14156112ae565b506115c360208201610fe8565b6115e66115e06115db856115d5611041565b90611633565b610ee0565b91610ee0565b14156112a7565b6a636f6e736f6c652e6c6f6790565b5f80916116076115ed565b602082519201905afa50565b5f90565b61161f611613565b5090565b5f90565b611630906102a7565b90565b61164861164d91611642611623565b50611263565b611627565b1661166061165a5f610b39565b916101ec565b141590565b5f5260018060a01b031660045260245ffd5b634e487b7160e01b5f52605160045260245ffd5b6001036116775761169b906115fc565b56fe60806040526004361015610013575b61155b565b61001d5f3561023c565b80630396f95014610237578063098851fe146102325780630dfe16811461022d5780631083f761146102285780631ab5605c1461022357806321d0ee701461021e578063259982e51461021957806332e7c5bf146102145780633d18651e1461020f5780633e827c921461020a578063575e24b41461020557806368e99c9a146102005780636b92bf5f146101fb5780636c2bbe7e146101f65780636fe7e6eb146101f157806371535b09146101ec5780637526b89a146101e757806376c7a3c7146101e25780637bdd6b44146101dd5780639f063efc146101d8578063a28af8a4146101d3578063b47b2fb1146101ce578063b612825f146101c9578063b6a8b0fa146101c4578063bc063e1a146101bf578063c4e833ce146101ba578063d0b4f591146101b5578063d21220a7146101b0578063dc4c90d3146101ab578063dc98354e146101a6578063e1b4af69146101a1578063f446c1d01461019c578063fb2a638d146101975763fbfa77cf0361000e57611526565b61149d565b611344565b611300565b6112ca565b61125b565b6111d4565b611178565b6110e6565b610f87565b610f2d565b610e63565b610d41565b610c99565b610c54565b610c1f565b610bc6565b610b59565b610b24565b610ae2565b610a2e565b610956565b6108d5565b610861565b610759565b6106ed565b610656565b610615565b6105f7565b610496565b61042a565b6103d1565b61033f565b6102bf565b60e01c90565b60405190565b5f80fd5b5f80fd5b5f91031261025a57565b61024c565b90565b90565b90565b61027c6102776102819261025f565b610265565b610262565b90565b61028f611388610268565b90565b61029a610284565b90565b6102a690610262565b9052565b91906102bd905f6020850194019061029d565b565b346102ef576102cf366004610250565b6102eb6102da610292565b6102e2610242565b918291826102aa565b0390f35b610248565b7f000000000000000000000000000000000000000000000000000000000000000090565b151590565b61032690610318565b9052565b919061033d905f6020850194019061031d565b565b3461036f5761034f366004610250565b61036b61035a6102f4565b610362610242565b9182918261032a565b0390f35b610248565b7f000000000000000000000000000000000000000000000000000000000000000090565b60018060a01b031690565b6103ac90610398565b90565b6103b8906103a3565b9052565b91906103cf905f602085019401906103af565b565b34610401576103e1366004610250565b6103fd6103ec610374565b6103f4610242565b918291826103bc565b0390f35b610248565b7f000000000000000000000000000000000000000000000000000000000000000090565b3461045a5761043a366004610250565b610456610445610406565b61044d610242565b918291826103bc565b0390f35b610248565b90565b61047661047161047b9261045f565b610265565b610262565b90565b6104886096610462565b90565b61049361047e565b90565b346104c6576104a6366004610250565b6104c26104b161048b565b6104b9610242565b918291826102aa565b0390f35b610248565b5f80fd5b6104d8816103a3565b036104df57565b5f80fd5b905035906104f0826104cf565b565b5f80fd5b908160a09103126105045790565b6104f2565b908160809103126105175790565b6104f2565b5f80fd5b5f80fd5b5f80fd5b909182601f830112156105625781359167ffffffffffffffff831161055d57602001926001830284011161055857565b610524565b610520565b61051c565b90610160828203126105c45761057f815f84016104e3565b9261058d82602085016104f6565b9261059b8360c08301610509565b9261014082013567ffffffffffffffff81116105bf576105bb9201610528565b9091565b6104cb565b61024c565b63ffffffff60e01b1690565b6105de906105c9565b9052565b91906105f5905f602085019401906105d5565b565b3461061057610607366004610567565b939290926115fb565b610248565b3461062e57610625366004610567565b93929092611675565b610248565b7369ecf8893845a267102f3b489a515da697f7049e90565b610653610633565b90565b3461068657610666366004610250565b61068261067161064b565b610679610242565b918291826103bc565b0390f35b610248565b90565b62ffffff1690565b6106aa6106a56106af9261068b565b610265565b61068e565b90565b6106bd610bb8610696565b90565b6106c86106b2565b90565b6106d49061068e565b9052565b91906106eb905f602085019401906106cb565b565b3461071d576106fd366004610250565b6107196107086106c0565b610710610242565b918291826106d8565b0390f35b610248565b90565b61073961073461073e92610722565b610265565b610262565b90565b61074b6019610725565b90565b610756610741565b90565b3461078957610769366004610250565b61078561077461074e565b61077c610242565b918291826102aa565b0390f35b610248565b9081606091031261079c5790565b6104f2565b90610140828203126107fe576107b9815f84016104e3565b926107c782602085016104f6565b926107d58360c0830161078e565b9261012082013567ffffffffffffffff81116107f9576107f59201610528565b9091565b6104cb565b61024c565b90565b61081a61081561081f92610803565b610265565b610803565b90565b61082b90610806565b9052565b60409061085861085f949695939661084e60608401985f8501906105d5565b6020830190610822565b01906106cb565b565b34610898576108946108806108773660046107a1565b9392909261171b565b61088b939193610242565b9384938461082f565b0390f35b610248565b90565b6108b46108af6108b99261089d565b610265565b610262565b90565b6108c76104b06108a0565b90565b6108d26108bc565b90565b34610905576108e5366004610250565b6109016108f06108ca565b6108f8610242565b918291826102aa565b0390f35b610248565b7f000000000000000000000000000000000000000000000000000000000000000090565b60ff1690565b61093d9061092e565b9052565b9190610954905f60208501940190610934565b565b3461098657610966366004610250565b61098261097161090a565b610979610242565b91829182610941565b0390f35b610248565b61099481610803565b0361099b57565b5f80fd5b905035906109ac8261098b565b565b916101a083830312610a29576109c6825f85016104e3565b926109d483602083016104f6565b926109e28160c08401610509565b926109f182610140850161099f565b92610a0083610160830161099f565b9261018082013567ffffffffffffffff8111610a2457610a209201610528565b9091565b6104cb565b61024c565b34610a4a57610a3e3660046109ae565b959490949391936117bc565b610248565b610a5881610398565b03610a5f57565b5f80fd5b90503590610a7082610a4f565b565b60020b90565b610a8181610a72565b03610a8857565b5f80fd5b90503590610a9982610a78565b565b61010081830312610add57610ab2825f83016104e3565b92610ada610ac384602085016104f6565b93610ad18160c08601610a63565b9360e001610a8c565b90565b61024c565b34610afb57610af2366004610a9b565b9291909161183d565b610248565b7f000000000000000000000000000000000000000000000000000000000000000090565b34610b5457610b34366004610250565b610b50610b3f610b00565b610b47610242565b91829182610941565b0390f35b610248565b34610b8957610b69366004610250565b610b85610b7461191b565b610b7c610242565b918291826102aa565b0390f35b610248565b90565b610ba5610ba0610baa92610b8e565b610265565b61068e565b90565b610bb86101f4610b91565b90565b610bc3610bad565b90565b34610bf657610bd6366004610250565b610bf2610be1610bbb565b610be9610242565b918291826106d8565b0390f35b610248565b7f000000000000000000000000000000000000000000000000000000000000000090565b34610c4f57610c2f366004610250565b610c4b610c3a610bfb565b610c42610242565b91829182610941565b0390f35b610248565b34610c7057610c643660046109ae565b95949094939193611bed565b610248565b7f000000000000000000000000000000000000000000000000000000000000000090565b34610cc957610ca9366004610250565b610cc5610cb4610c75565b610cbc610242565b91829182610941565b0390f35b610248565b91909161016081840312610d3c57610ce8835f83016104e3565b92610cf681602084016104f6565b92610d048260c0850161078e565b92610d1383610120830161099f565b9261014082013567ffffffffffffffff8111610d3757610d339201610528565b9091565b6104cb565b61024c565b34610d5d57610d51366004610cce565b94939093929192611c77565b610248565b90602082820312610d7b57610d78915f01610a8c565b90565b61024c565b610d94610d8f610d9992610398565b610265565b610398565b90565b610da590610d80565b90565b610db190610d9c565b90565b610dbd90610da8565b9052565b610dca9061068e565b9052565b610dd790610a72565b9052565b610de490610d9c565b90565b610df090610ddb565b9052565b90608080610e4c93610e0c5f8201515f860190610db4565b610e1e60208201516020860190610db4565b610e3060408201516040860190610dc1565b610e4260608201516060860190610dce565b0151910190610de7565b565b9190610e61905f60a08501940190610df4565b565b34610e9357610e8f610e7e610e79366004610d62565b611da8565b610e86610242565b91829182610e4e565b0390f35b610248565b610ea181610262565b03610ea857565b5f80fd5b90503590610eb982610e98565b565b91909161012081840312610f2857610ed5835f83016104e3565b92610ee381602084016104f6565b92610ef18260c08501610eac565b92610eff8360e08301610eac565b9261010082013567ffffffffffffffff8111610f2357610f1f9201610528565b9091565b6104cb565b61024c565b34610f4957610f3d366004610ebb565b94939093929192611eda565b610248565b90565b610f65610f60610f6a92610f4e565b610265565b61068e565b90565b610f79620186a0610f51565b90565b610f84610f6d565b90565b34610fb757610f97366004610250565b610fb3610fa2610f7c565b610faa610242565b918291826106d8565b0390f35b610248565b610fc590610318565b9052565b906101a0806110ce93610fe25f8201515f860190610fbc565b610ff460208201516020860190610fbc565b61100660408201516040860190610fbc565b61101860608201516060860190610fbc565b61102a60808201516080860190610fbc565b61103c60a082015160a0860190610fbc565b61104e60c082015160c0860190610fbc565b61106060e082015160e0860190610fbc565b611074610100820151610100860190610fbc565b611088610120820151610120860190610fbc565b61109c610140820151610140860190610fbc565b6110b0610160820151610160860190610fbc565b6110c4610180820151610180860190610fbc565b0151910190610fbc565b565b91906110e4905f6101c08501940190610fc9565b565b34611116576110f6366004610250565b611112611101611fd7565b611109610242565b918291826110d0565b0390f35b610248565b9060a08282031261113457611131915f016104f6565b90565b61024c565b61114290610398565b9052565b60409061116f611176949695939661116560608401985f85019061029d565b602083019061029d565b0190611139565b565b346111ab576111a761119361118e36600461111b565b6121c0565b61119e939193610242565b93849384611146565b0390f35b610248565b7f000000000000000000000000000000000000000000000000000000000000000090565b34611204576111e4366004610250565b6112006111ef6111b0565b6111f7610242565b918291826103bc565b0390f35b610248565b7f000000000000000000000000000000000000000000000000000000000000000090565b61123690610d9c565b90565b6112429061122d565b9052565b9190611259905f60208501940190611239565b565b3461128b5761126b366004610250565b611287611276611209565b61127e610242565b91829182611246565b0390f35b610248565b909160e0828403126112c5576112c26112ab845f85016104e3565b936112b981602086016104f6565b9360c001610a63565b90565b61024c565b346112fb576112f76112e66112e0366004611290565b916122a5565b6112ee610242565b918291826105e2565b0390f35b610248565b3461131c57611310366004610ebb565b9493909392919261232a565b610248565b73b32da9c3d9d0bd24b647af261818739ae303648d90565b611341611321565b90565b3461137457611354366004610250565b61137061135f611339565b611367610242565b918291826103bc565b0390f35b610248565b61138281610318565b0361138957565b5f80fd5b9050359061139a82611379565b565b919060c0838203126113c457806113b86113c1925f86016104f6565b9360a00161138d565b90565b61024c565b6113d290610262565b9052565b9061010080611477936113ef5f8201515f860190610dc1565b61140160208201516020860190610dc1565b61141360408201516040860190610dc1565b611425606082015160608601906113c9565b611437608082015160808601906113c9565b61144960a082015160a08601906113c9565b61145b60c082015160c08601906113c9565b61146d60e082015160e0860190610fbc565b0151910190610fbc565b565b91602061149b9294936114946101408201965f8301906106cb565b01906113d6565b565b346114cf576114b66114b036600461139c565b906123ce565b906114cb6114c2610242565b92839283611479565b0390f35b610248565b7f000000000000000000000000000000000000000000000000000000000000000090565b61150190610d9c565b90565b61150d906114f8565b9052565b9190611524905f60208501940190611504565b565b3461155657611536366004610250565b6115526115416114d4565b611549610242565b91829182611511565b0390f35b610248565b5f80fd5b6a636f6e736f6c652e6c6f6790565b5f809161157961155f565b602082519201905afa50565b5f90565b5f0190565b336115c96115c36115be7f000000000000000000000000000000000000000000000000000000000000000061122d565b6103a3565b916103a3565b03156115eb575f63570c108560e11b8152806115e760048201611589565b0390fd5b94939291945093909192936123f0565b611603611585565b61158e565b3361164361163d6116387f000000000000000000000000000000000000000000000000000000000000000061122d565b6103a3565b916103a3565b0315611665575f63570c108560e11b81528061166160048201611589565b0390fd5b9493929194509390919293612415565b61167d611585565b611608565b5f90565b5f90565b96959493929190336116cc6116c66116c17f000000000000000000000000000000000000000000000000000000000000000061122d565b6103a3565b916103a3565b036116df576116da976116fb565b909192565b5f63570c108560e11b8152806116f760048201611589565b0390fd5b906117149795939291969496505050939091929361251a565b9192909190565b906117419493929161172b611585565b611733611682565b61173b611686565b9161168a565b909192565b5f90565b3361178561177f61177a7f000000000000000000000000000000000000000000000000000000000000000061122d565b6103a3565b916103a3565b03156117a7575f63570c108560e11b8152806117a360048201611589565b0390fd5b979695949392975050959091929394956125ce565b6117c4611585565b6117cc611746565b9061174a565b3361180d6118076118027f000000000000000000000000000000000000000000000000000000000000000061122d565b6103a3565b916103a3565b031561182f575f63570c108560e11b81528061182b60048201611589565b0390fd5b9392919350929091926125fc565b611845611585565b6117d2565b5f90565b601f801991011690565b634e487b7160e01b5f52604160045260245ffd5b906118769061184e565b810190811067ffffffffffffffff82111761189057604052565b611858565b60e01b90565b905051906118a882610e98565b565b906020828203126118c3576118c0915f0161189b565b90565b61024c565b6118d0610242565b3d5f823e3d90fd5b6118e190610d80565b90565b6118ed906118d8565b90565b6118f990610d9c565b90565b90565b61191361190e611918926118fc565b610265565b610262565b90565b61192361184a565b5061196860206119527f00000000000000000000000000000000000000000000000000000000000000006114f8565b6301e1d11490611960610242565b938492611895565b8252818061197860048201611589565b03915afa908115611b76575f91611b48575b506119df60206119c96119c46119bf7f00000000000000000000000000000000000000000000000000000000000000006114f8565b6118e4565b6118f0565b6318160ddd906119d7610242565b938492611895565b825281806119ef60048201611589565b03915afa908115611b43575f91611b15575b509080611a16611a105f6118ff565b91610262565b148015611afb575b611aed577f00000000000000000000000000000000000000000000000000000000000000005f14611a9b5790611a9791907f00000000000000000000000000000000000000000000000000000000000000007f0000000000000000000000000000000000000000000000000000000000000000926128cc565b5b90565b611ae891907f00000000000000000000000000000000000000000000000000000000000000007f0000000000000000000000000000000000000000000000000000000000000000926128cc565b611a98565b5050611af85f6118ff565b90565b5081611b0f611b095f6118ff565b91610262565b14611a1e565b611b36915060203d8111611b3c575b611b2e818361186c565b8101906118aa565b5f611a01565b503d611b24565b6118c8565b611b69915060203d8111611b6f575b611b61818361186c565b8101906118aa565b5f61198a565b503d611b57565b6118c8565b33611bb6611bb0611bab7f000000000000000000000000000000000000000000000000000000000000000061122d565b6103a3565b916103a3565b0315611bd8575f63570c108560e11b815280611bd460048201611589565b0390fd5b979695949392975050959091929394956129f5565b611bf5611585565b611bfd611746565b90611b7b565b5f90565b33611c42611c3c611c377f000000000000000000000000000000000000000000000000000000000000000061122d565b6103a3565b916103a3565b0315611c64575f63570c108560e11b815280611c6060048201611589565b0390fd5b9695949392965050949091929394612a23565b611c7f611585565b611c87611c03565b90611c07565b90611ca0611c99610242565b928361186c565b565b611cac60a0611c8d565b90565b5f90565b5f90565b5f90565b5f90565b611cc7611ca2565b9060208080808086611cd7611caf565b815201611ce2611caf565b815201611ced611cb3565b815201611cf8611cb7565b815201611d03611cbb565b81525050565b611d11611cbf565b90565b611d1d90610d9c565b90565b611d2990610d80565b90565b611d3590611d20565b90565b611d4260a0611c8d565b90565b90611d4f906103a3565b9052565b90565b611d6a611d65611d6f92611d53565b610265565b61068e565b90565b90611d7c9061068e565b9052565b90611d8a90610a72565b9052565b611d97906103a3565b90565b90611da490611d8e565b9052565b611db0611d09565b50611e68611ddd7f0000000000000000000000000000000000000000000000000000000000000000610da8565b91611e5f611e0a7f0000000000000000000000000000000000000000000000000000000000000000610da8565b611e56611e4d611e21611e1c30611d14565b611d2c565b94611e48628000009194611e3f611e36611d38565b9a5f8c01611d45565b60208a01611d45565b611d56565b60408701611d72565b60608501611d80565b60808301611d9a565b90565b33611ea6611ea0611e9b7f000000000000000000000000000000000000000000000000000000000000000061122d565b6103a3565b916103a3565b0315611ec8575f63570c108560e11b815280611ec460048201611589565b0390fd5b95949392919550949091929394612a51565b611ee2611585565b611e6b565b611ef26101c0611c8d565b90565b5f90565b60209081808080808080808080808080611f11611ee7565b9e8f611f1b611ef5565b815201611f26611ef5565b815201611f31611ef5565b815201611f3c611ef5565b815201611f47611ef5565b815201611f52611ef5565b815201611f5d611ef5565b815201611f68611ef5565b815201611f73611ef5565b815201611f7e611ef5565b815201611f89611ef5565b815201611f94611ef5565b815201611f9f611ef5565b815201611faa611ef5565b81525050565b611fb8611ef9565b90565b611fc66101c0611c8d565b90565b90611fd390610318565b9052565b611fdf611fb0565b5060015f5f5f5f905f60015f5f915f935f955f975f995f9b611fff611fbb565b809e5f82019061200e91611fc9565b6020019061201b91611fc9565b60408d019061202991611fc9565b60608c019061203791611fc9565b60808b019061204591611fc9565b60a08a019061205391611fc9565b60c089019061206191611fc9565b60e088019061206f91611fc9565b61010087019061207e91611fc9565b61012086019061208d91611fc9565b61014085019061209c91611fc9565b6101608401906120ab91611fc9565b6101808301906120ba91611fc9565b6101a08201906120c991611fc9565b90565b5f90565b5f80fd5b6120dd816103a3565b036120e457565b5f80fd5b905035906120f5826120d4565b565b6121008161068e565b0361210757565b5f80fd5b90503590612118826120f7565b565b61212381611d8e565b0361212a57565b5f80fd5b9050359061213b8261211a565b565b919060a0838203126121ad576121a69061215760a0611c8d565b93612164825f83016120e8565b5f86015261217582602083016120e8565b6020860152612187826040830161210b565b60408601526121998260608301610a8c565b606086015260800161212e565b6080830152565b6120d0565b6121bd90369061213d565b90565b612217906121cc61184a565b506121d561184a565b506121de6120cc565b5061221161220c7f0000000000000000000000000000000000000000000000000000000000000000926121b2565b612a7a565b90612af4565b50505061222381612cba565b919092565b9291903361226661226061225b7f000000000000000000000000000000000000000000000000000000000000000061122d565b6103a3565b916103a3565b036122775761227493612293565b90565b5f63570c108560e11b81528061228f60048201611589565b0390fd5b906122a2939150919091612e83565b90565b906122b892916122b3611585565b612228565b90565b336122f66122f06122eb7f000000000000000000000000000000000000000000000000000000000000000061122d565b6103a3565b916103a3565b0315612318575f63570c108560e11b81528061231460048201611589565b0390fd5b95949392919550949091929394612edc565b612332611585565b6122bb565b612342610120611c8d565b90565b5f90565b612351612337565b90602080808080808080808a612365611cb3565b815201612370611cb3565b81520161237b611cb3565b815201612386612345565b815201612391612345565b81520161239c612345565b8152016123a7612345565b8152016123b2611ef5565b8152016123bd611ef5565b81525050565b6123cb612349565b90565b906123ea916123db611686565b506123e46123c3565b50612f86565b91909190565b6123f8611585565b505f630a85dc2960e01b81528061241160048201611589565b0390fd5b61241d611585565b505f630a85dc2960e01b81528061243660048201611589565b0390fd5b3561244481611379565b90565b90565b61245e61245961246392612447565b610265565b61068e565b90565b6124726240000061244a565b90565b61247f9051610318565b90565b61248c9051610262565b90565b6124c46124cb946124ba6060949897956124b0608086019a5f8701906106cb565b60208501906106cb565b604083019061031d565b019061029d565b565b63ffffffff1690565b6124ea6124e56124ef926124cd565b611895565b6105c9565b90565b61250661250161250b926118fc565b610265565b610803565b90565b6125175f6124f2565b90565b50612550935061254a9192505f90612530611585565b50612539611682565b50612542611686565b50920161243a565b90612f86565b9190918261255c612466565b179283906125ae61257b60a061257460e08701612475565b9501612482565b7f1c98187404de75a16e4d178714c9859e2b41be8ee0fa8072b7077b85860f0373946125a5610242565b9485948561248f565b0390a16125be63575e24b46124d6565b906125c761250e565b9291929190565b6125d6611585565b506125df611746565b505f630a85dc2960e01b8152806125f860048201611589565b0390fd5b612604611585565b505f630a85dc2960e01b81528061261d60048201611589565b0390fd5b60209181520190565b5f7f7a65726f20696e70757400000000000000000000000000000000000000000000910152565b61265e600a602092612621565b6126678161262a565b0190565b6126809060208101905f818303910152612651565b90565b1561268a57565b612692610242565b62461bcd60e51b8152806126a86004820161266b565b0390fd5b90565b6126c36126be6126c8926126ac565b610265565b610262565b90565b6126df6126da6126e492610262565b610265565b610803565b90565b6126fb6126f66127009261092e565b610265565b610262565b90565b634e487b7160e01b5f52601160045260245ffd5b61272661272c91939293610803565b92610803565b808301925f8285121581831216928512911215161761274757565b612703565b61275b61276191939293610803565b92610803565b91828103925f82851281831216928513911215161761277c57565b612703565b61278a90610803565b600160ff1b811461279a575f0390565b612703565b6127b36127ae6127b892610803565b610265565b610262565b90565b90565b6127d26127cd6127d7926127bb565b610265565b610262565b90565b6127e390610262565b604d81116127f157600a0a90565b612703565b61280561280b91939293610262565b92610262565b91612817838202610262565b92818404149015171561282657565b612703565b90565b61284261283d6128479261282b565b610265565b610262565b90565b5f7f726174696f3d3000000000000000000000000000000000000000000000000000910152565b61287e6007602092612621565b6128878161284a565b0190565b6128a09060208101905f818303910152612871565b90565b156128aa57565b6128b2610242565b62461bcd60e51b8152806128c86004820161288b565b0390fd5b91929061293c612937612931612942946128e461184a565b50866128f86128f25f6118ff565b91610262565b11806129d6575b61290890612683565b61292b61292661292061291b60126126af565b6126cb565b926126e7565b6126cb565b90612717565b926126e7565b6126cb565b9061274c565b91826129566129505f6124f2565b91610803565b12155f146129995761297261296d6129799461279f565b6127da565b9091613099565b905b6129978261299161298b5f6118ff565b91610262565b116128a3565b565b906129ca6129c46129bc6129b76129b26129d097612781565b61279f565b6127da565b6001946127f6565b9261282e565b90613099565b9061297b565b50612908886129ed6129e75f6118ff565b91610262565b1190506128ff565b6129fd611585565b50612a06611746565b505f630a85dc2960e01b815280612a1f60048201611589565b0390fd5b612a2b611585565b50612a34611c03565b505f630a85dc2960e01b815280612a4d60048201611589565b0390fd5b612a59611585565b505f630a85dc2960e01b815280612a7260048201611589565b0390fd5b5f90565b60a090612a85612a76565b502090565b5f90565b90565b612a9a81612a8e565b03612aa157565b5f80fd5b90505190612ab282612a91565b565b90602082820312612acd57612aca915f01612aa5565b90565b61024c565b612adb90612a8e565b9052565b9190612af2905f60208501940190612ad2565b565b602090612b30612b2a612b5794612b096120cc565b50612b12612a8a565b50612b1b611686565b50612b24611686565b50613300565b9161122d565b612b4c631e2eaeaf612b40610242565b95869485938493611895565b835260048301612adf565b03915afa908115612bbd575f91612b8f575b509060018060a01b038216918060a01c60020b9162ffffff808360b81c169260d01c1690565b612bb0915060203d8111612bb6575b612ba8818361186c565b810190612ab4565b5f612b69565b503d612b9e565b6118c8565b612bd6612bd1612bdb92610398565b610265565b610262565b90565b90565b612bf5612bf0612bfa92612bde565b610265565b610262565b90565b612c09612c0f9161092e565b9161092e565b90039060ff8211612c1c57565b612703565b90565b612c38612c33612c3d92612c21565b610265565b610262565b90565b634e487b7160e01b5f52601260045260245ffd5b612c60612c6691610262565b91610262565b908115612c71570490565b612c40565b612c85612c8b91939293610262565b92610262565b8201809211612c9657565b612703565b90565b612cb2612cad612cb792612c9b565b610265565b610262565b90565b612cd590612cc661184a565b50612ccf61184a565b50612bc2565b90612dea612cf2612ce9600160601b612be1565b93808591613099565b927f0000000000000000000000000000000000000000000000000000000000000000612d46612d407f000000000000000000000000000000000000000000000000000000000000000061092e565b9161092e565b10155f14612ded57612dd1612dca612db0612daa612da57f00000000000000000000000000000000000000000000000000000000000000007f000000000000000000000000000000000000000000000000000000000000000090612bfd565b61341e565b876127f6565b612dc484612dbe6002612c24565b90612c54565b90612c76565b8290612c54565b935b612de4670de0b6b3a7640000612c9e565b90613099565b90565b612e70612e4d82612e47612e427f00000000000000000000000000000000000000000000000000000000000000007f000000000000000000000000000000000000000000000000000000000000000090612bfd565b61341e565b906127f6565b612e6b86612e6583612e5f6002612c24565b90612c54565b90612c76565b612c54565b93612dd3565b35612e80816120f7565b90565b50612eac9150612ea16040612ea692612e9a611585565b5001612e76565b613538565b15610318565b612ec057612ebd63dc98354e6124d6565b90565b5f6315b3d69f60e31b815280612ed860048201611589565b0390fd5b612ee4611585565b505f630a85dc2960e01b815280612efd60048201611589565b0390fd5b67ffffffffffffffff8111612f1f57612f1b60209161184e565b0190565b611858565b90612f36612f3183612f01565b611c8d565b918252565b5f7f6e6176316531383a200000000000000000000000000000000000000000000000910152565b612f6c6009612f24565b90612f7960208301612f3b565b565b612f83612f62565b90565b61304f91612f92611686565b50612f9b6123c3565b5061300a612fff612ff7612fad61362b565b94612fbf86612fba612f7b565b6138fd565b612ff1612fec7f0000000000000000000000000000000000000000000000000000000000000000926121b2565b612a7a565b90612af4565b505050612cba565b90509182849161393f565b9091906130156106b2565b61301d610bad565b613025610f6d565b9061302e610741565b9261303761047e565b946130406108bc565b96613049610284565b98613a4d565b9091565b9061305e9102610262565b90565b1561306857565b5f80fd5b906130779103610262565b90565b90565b61309161308c6130969261307a565b610265565b610262565b90565b6130a161184a565b506130ad818390613053565b916130b661184a565b505f1981830983808210910303916130e0856130da6130d486610262565b91610262565b11613061565b826130f36130ed5f6118ff565b91610262565b146132545761324b928561325196936131429361310e61184a565b5009908582119003940393600161312e5f61312986916118ff565b61306c565b841680809504960493805f03040190613053565b17916132456132296132056131e16131bd61319961316a6003613165899161307d565b613053565b6131746002612c24565b18613193600261318e6131888b8590613053565b91612c24565b61306c565b90613053565b6131b760026131b26131ac8a8590613053565b91612c24565b61306c565b90613053565b6131db60026131d66131d0898590613053565b91612c24565b61306c565b90613053565b6131ff60026131fa6131f4888590613053565b91612c24565b61306c565b90613053565b613223600261321e613218878590613053565b91612c24565b61306c565b90613053565b9161324061323a6002928590613053565b91612c24565b61306c565b90613053565b90613053565b90565b5050500490565b5f90565b61326890612a8e565b90565b90565b61328261327d6132879261326b565b610265565b610262565b90565b5f1b90565b6132a361329e6132a892610262565b61328a565b612a8e565b90565b6132bd6132b8600661326e565b61328f565b90565b90565b6132cf6132d491612a8e565b6132c0565b9052565b6020816132ea6132f2938396956132c3565b0180926132c3565b0190565b60200190565b5190565b6133129061330c61325b565b5061325f565b61334461331d6132ab565b91613335613329610242565b938492602084016132d8565b6020820181038252038261186c565b613356613350826132fc565b916132f6565b2090565b61336e613369613373926118fc565b610265565b61092e565b90565b61338a61338561338f9261326b565b610265565b61092e565b90565b90565b6133a96133a46133ae92613392565b610265565b610262565b90565b90565b6133c86133c36133cd926133b1565b610265565b61092e565b90565b90565b6133e76133e26133ec926133d0565b610265565b610262565b90565b6134036133fe613408926126ac565b610265565b61092e565b90565b5f90565b600161341b910161092e565b90565b61342661184a565b508061343a6134345f61335a565b9161092e565b14613517578061345361344d6006613376565b9161092e565b14613507578061346c61346660086133b4565b9161092e565b146134f6578061348561347f60126133ef565b9161092e565b146134e157613494600161282e565b9161349d61340b565b925b836134b26134ac8561092e565b9161092e565b10156134db576134cf6134d5916134c9600a6127be565b90613053565b9361340f565b9261349f565b92509050565b506134f3670de0b6b3a7640000612c9e565b90565b506135046305f5e1006133d3565b90565b50613514620f4240613395565b90565b50613522600161282e565b90565b5f90565b61353562800000611d56565b90565b613540613525565b5061355a61355461354f613529565b61068e565b9161068e565b1490565b5f7f656d707479207661756c74000000000000000000000000000000000000000000910152565b613592600b602092612621565b61359b8161355e565b0190565b6135b49060208101905f818303910152613585565b90565b156135be57565b6135c6610242565b62461bcd60e51b8152806135dc6004820161359f565b0390fd5b5f7f6e6176316531382028737472696374293a000000000000000000000000000000910152565b6136116011612f24565b9061361e602083016135e0565b565b613628613607565b90565b61363361184a565b5061367860206136627f00000000000000000000000000000000000000000000000000000000000000006114f8565b6301e1d11490613670610242565b938492611895565b8252818061368860048201611589565b03915afa908115613892575f91613864575b506136ef60206136d96136d46136cf7f00000000000000000000000000000000000000000000000000000000000000006114f8565b6118e4565b6118f0565b6318160ddd906136e7610242565b938492611895565b825281806136ff60048201611589565b03915afa90811561385f575f91613831575b5090806137266137205f6118ff565b91610262565b1180613812575b613736906135b7565b7f00000000000000000000000000000000000000000000000000000000000000005f146137c057906137ab91907f00000000000000000000000000000000000000000000000000000000000000007f0000000000000000000000000000000000000000000000000000000000000000926128cc565b5b6137bd816137b8613620565b6138fd565b90565b61380d91907f00000000000000000000000000000000000000000000000000000000000000007f0000000000000000000000000000000000000000000000000000000000000000926128cc565b6137ac565b50613736826138296138235f6118ff565b91610262565b11905061372d565b613852915060203d8111613858575b61384a818361186c565b8101906118aa565b5f613711565b503d613840565b6118c8565b613885915060203d811161388b575b61387d818361186c565b8101906118aa565b5f61369a565b503d613873565b6118c8565b5190565b90825f9392825e0152565b6138c56138ce6020936138d3936138bc81613897565b93848093612621565b9586910161389b565b61184e565b0190565b929160206138f36138fb9360408701908782035f8901526138a6565b94019061029d565b565b9061393861393d92613929613910610242565b938492600460208501632d839cb360e21b8152016138d7565b6020820181038252038261186c565b613e60565b565b9190613949613525565b508061395d61395784610262565b91610262565b105f146139735750506139709015610318565b90565b6139806139869192610262565b91610262565b115f146139905790565b50600190565b6139a1610120611c8d565b90565b906139ae90610262565b9052565b6139c16139c791939293610262565b92610262565b82039182116139d257565b612703565b90565b6139ee6139e96139f3926139d7565b610265565b610262565b90565b613a0a613a05613a0f9261068e565b610265565b610262565b90565b90565b613a29613a24613a2e92613a12565b610265565b610262565b90565b613a45613a40613a4a92610262565b610265565b61068e565b90565b96959299989390919497613a5f611686565b50613a686123c3565b5082613a7c613a765f6118ff565b91610262565b14613dac5787613a94613a8e85610262565b91610262565b115f14613d7e57613ac4613abd613aac8a86906139b2565b613ab76127106139da565b906127f6565b8490612c54565b5b9480613ad9613ad35f6118ff565b91610262565b14159081613d61575b5096613aec61184a565b50613af561184a565b50875f14613c9a575050845f14613c9157613b10815b6139f6565b975b88613b25613b1f846139f6565b91610262565b105f14613c595750613b39613b3f916139f6565b5b613a31565b989680613b57613b5162ffffff6139f6565b91610262565b115f14613c505750613b74613b6e62ffffff6139f6565b5b613a31565b95899091928480613b8d613b8784610262565b91610262565b115f14613c3f57613bb191613ba1916139b2565b613bab6064613a15565b90612c54565b945b9596613bbd613996565b985f8a0190613bcb91611d72565b6020890190613bd991611d72565b6040880190613be791611d72565b6060870190613bf5916139a4565b6080860190613c03916139a4565b60a0850190613c11916139a4565b60c0840190613c1f916139a4565b60e0830190613c2d91611fc9565b610100820190613c3c91611fc9565b90565b5050613c4a5f6118ff565b94613bb3565b613b7490613b6f565b905087613c6e613c68836139f6565b91610262565b115f14613c8757613c81613b3f916139f6565b5b613b3a565b50613b3f87613c82565b613b1088613b0b565b85613cad613ca787610262565b91610262565b115f14613d5057613ce691613cd691613cc78888906139b2565b91895f14613d4957505b6127f6565b613ce06064613a15565b90612c54565b855f14613d31578a613d00613cfa83610262565b916139f6565b115f14613d2257613d1990613d148c6139f6565b6139b2565b5b975b5b613b12565b50613d2c5f6118ff565b613d1a565b613d4390613d3e8c6139f6565b612c76565b97613d1c565b9050613cd1565b5050613d5b8a6139f6565b97613d1d565b9050613d76613d708792610262565b91610262565b10155f613ae2565b613da7613da0613d8f858b906139b2565b613d9a6127106139da565b906127f6565b8490612c54565b613ac5565b50509550505094809291509482938392905f915f93945f96613dcc613996565b985f8a0190613dda91611d72565b6020890190613de891611d72565b6040880190613df691611d72565b6060870190613e04916139a4565b6080860190613e12916139a4565b613e1b906118ff565b60a0850190613e29916139a4565b613e32906118ff565b60c0840190613e40916139a4565b60e0830190613e4e91611fc9565b610100820190613e5d91611fc9565b90565b613e7390613e6e6001613e79565b613e99565b565b5f90565b613e81613e75565b5090565b634e487b7160e01b5f52605160045260245ffd5b600103613e8557613ea99061156e565b56fea2646970667358221220ca714471013d5398ab084f359f2b17bebaa883b21749d5f0f5c8b58a0defdc8564736f6c634300081e0033","linkReferences":{}},"methodIdentifiers":{"A()":"f446c1d0","ARB_TRIGGER_BPS()":"0396f950","B()":"32e7c5bf","BASE_FEE()":"3d18651e","DEADZONE_BPS()":"3e827c92","MAX_FEE()":"bc063e1a","MIN_FEE()":"76c7a3c7","SLOPE_AWAY()":"68e99c9a","SLOPE_TOWARD()":"1ab5605c","afterAddLiquidity(address,(address,address,uint24,int24,address),(int24,int24,int256,bytes32),int256,int256,bytes)":"9f063efc","afterDonate(address,(address,address,uint24,int24,address),uint256,uint256,bytes)":"e1b4af69","afterInitialize(address,(address,address,uint24,int24,address),uint160,int24)":"6fe7e6eb","afterRemoveLiquidity(address,(address,address,uint24,int24,address),(int24,int24,int256,bytes32),int256,int256,bytes)":"6c2bbe7e","afterSwap(address,(address,address,uint24,int24,address),(bool,int256,uint160),int256,bytes)":"b47b2fb1","assetDec()":"71535b09","assetToken()":"1083f761","beforeAddLiquidity(address,(address,address,uint24,int24,address),(int24,int24,int256,bytes32),bytes)":"259982e5","beforeDonate(address,(address,address,uint24,int24,address),uint256,uint256,bytes)":"b6a8b0fa","beforeInitialize(address,(address,address,uint24,int24,address),uint160)":"dc98354e","beforeRemoveLiquidity(address,(address,address,uint24,int24,address),(int24,int24,int256,bytes32),bytes)":"21d0ee70","beforeSwap(address,(address,address,uint24,int24,address),(bool,int256,uint160),bytes)":"575e24b4","currentPrices((address,address,uint24,int24,address))":"d0b4f591","decimals0()":"7bdd6b44","decimals1()":"a28af8a4","getHookPermissions()":"c4e833ce","keyDynamic(int24)":"b612825f","nav1e18()":"7526b89a","poolManager()":"dc4c90d3","previewFee((address,address,uint24,int24,address),bool)":"fb2a638d","shareDec()":"6b92bf5f","sharesIsToken0()":"098851fe","token0()":"0dfe1681","token1()":"d21220a7","vault()":"fbfa77cf"},"id":62}