{"abi":[{"type":"constructor","inputs":[{"name":"_asset","type":"address","internalType":"address"},{"name":"_owner","type":"address","internalType":"address"},{"name":"_initialRedemptionPeriod","type":"uint256","internalType":"uint256"}],"stateMutability":"nonpayable"},{"type":"function","name":"adjustExternalNav","inputs":[{"name":"delta","type":"int256","internalType":"int256"}],"outputs":[],"stateMutability":"nonpayable"},{"type":"function","name":"allowance","inputs":[{"name":"owner","type":"address","internalType":"address"},{"name":"spender","type":"address","internalType":"address"}],"outputs":[{"name":"","type":"uint256","internalType":"uint256"}],"stateMutability":"view"},{"type":"function","name":"approve","inputs":[{"name":"spender","type":"address","internalType":"address"},{"name":"value","type":"uint256","internalType":"uint256"}],"outputs":[{"name":"","type":"bool","internalType":"bool"}],"stateMutability":"nonpayable"},{"type":"function","name":"asset","inputs":[],"outputs":[{"name":"","type":"address","internalType":"address"}],"stateMutability":"view"},{"type":"function","name":"balanceOf","inputs":[{"name":"account","type":"address","internalType":"address"}],"outputs":[{"name":"","type":"uint256","internalType":"uint256"}],"stateMutability":"view"},{"type":"function","name":"cancelWithdraw","inputs":[{"name":"shares","type":"uint256","internalType":"uint256"}],"outputs":[],"stateMutability":"nonpayable"},{"type":"function","name":"convertToAssets","inputs":[{"name":"shares","type":"uint256","internalType":"uint256"}],"outputs":[{"name":"","type":"uint256","internalType":"uint256"}],"stateMutability":"view"},{"type":"function","name":"convertToShares","inputs":[{"name":"assets","type":"uint256","internalType":"uint256"}],"outputs":[{"name":"","type":"uint256","internalType":"uint256"}],"stateMutability":"view"},{"type":"function","name":"decimals","inputs":[],"outputs":[{"name":"","type":"uint8","internalType":"uint8"}],"stateMutability":"view"},{"type":"function","name":"deposit","inputs":[{"name":"assets","type":"uint256","internalType":"uint256"},{"name":"receiver","type":"address","internalType":"address"}],"outputs":[{"name":"shares","type":"uint256","internalType":"uint256"}],"stateMutability":"nonpayable"},{"type":"function","name":"depositCap","inputs":[],"outputs":[{"name":"","type":"uint256","internalType":"uint256"}],"stateMutability":"view"},{"type":"function","name":"depositMin","inputs":[],"outputs":[{"name":"","type":"uint256","internalType":"uint256"}],"stateMutability":"view"},{"type":"function","name":"externalNav","inputs":[],"outputs":[{"name":"","type":"uint256","internalType":"uint256"}],"stateMutability":"view"},{"type":"function","name":"idleAssets","inputs":[],"outputs":[{"name":"","type":"uint256","internalType":"uint256"}],"stateMutability":"view"},{"type":"function","name":"initiateWithdraw","inputs":[{"name":"shares","type":"uint256","internalType":"uint256"}],"outputs":[],"stateMutability":"nonpayable"},{"type":"function","name":"isKeeper","inputs":[{"name":"","type":"address","internalType":"address"}],"outputs":[{"name":"","type":"bool","internalType":"bool"}],"stateMutability":"view"},{"type":"function","name":"maxDeposit","inputs":[{"name":"receiver","type":"address","internalType":"address"}],"outputs":[{"name":"","type":"uint256","internalType":"uint256"}],"stateMutability":"view"},{"type":"function","name":"maxMint","inputs":[{"name":"receiver","type":"address","internalType":"address"}],"outputs":[{"name":"","type":"uint256","internalType":"uint256"}],"stateMutability":"view"},{"type":"function","name":"maxRedeem","inputs":[{"name":"owner","type":"address","internalType":"address"}],"outputs":[{"name":"","type":"uint256","internalType":"uint256"}],"stateMutability":"view"},{"type":"function","name":"maxWithdraw","inputs":[{"name":"owner","type":"address","internalType":"address"}],"outputs":[{"name":"","type":"uint256","internalType":"uint256"}],"stateMutability":"view"},{"type":"function","name":"mint","inputs":[{"name":"shares","type":"uint256","internalType":"uint256"},{"name":"receiver","type":"address","internalType":"address"}],"outputs":[{"name":"assets","type":"uint256","internalType":"uint256"}],"stateMutability":"nonpayable"},{"type":"function","name":"name","inputs":[],"outputs":[{"name":"","type":"string","internalType":"string"}],"stateMutability":"view"},{"type":"function","name":"owner","inputs":[],"outputs":[{"name":"","type":"address","internalType":"address"}],"stateMutability":"view"},{"type":"function","name":"pause","inputs":[],"outputs":[],"stateMutability":"nonpayable"},{"type":"function","name":"paused","inputs":[],"outputs":[{"name":"","type":"bool","internalType":"bool"}],"stateMutability":"view"},{"type":"function","name":"pendingOf","inputs":[{"name":"user","type":"address","internalType":"address"}],"outputs":[{"name":"shares","type":"uint256","internalType":"uint256"},{"name":"unlockAt","type":"uint256","internalType":"uint256"},{"name":"timeLeft","type":"uint256","internalType":"uint256"}],"stateMutability":"view"},{"type":"function","name":"pendingShares","inputs":[{"name":"","type":"address","internalType":"address"}],"outputs":[{"name":"","type":"uint256","internalType":"uint256"}],"stateMutability":"view"},{"type":"function","name":"pendingUnlockAt","inputs":[{"name":"","type":"address","internalType":"address"}],"outputs":[{"name":"","type":"uint256","internalType":"uint256"}],"stateMutability":"view"},{"type":"function","name":"perUserDepositCap","inputs":[],"outputs":[{"name":"","type":"uint256","internalType":"uint256"}],"stateMutability":"view"},{"type":"function","name":"previewDeposit","inputs":[{"name":"assets","type":"uint256","internalType":"uint256"}],"outputs":[{"name":"","type":"uint256","internalType":"uint256"}],"stateMutability":"view"},{"type":"function","name":"previewMint","inputs":[{"name":"shares","type":"uint256","internalType":"uint256"}],"outputs":[{"name":"","type":"uint256","internalType":"uint256"}],"stateMutability":"view"},{"type":"function","name":"previewRedeem","inputs":[{"name":"shares","type":"uint256","internalType":"uint256"}],"outputs":[{"name":"","type":"uint256","internalType":"uint256"}],"stateMutability":"view"},{"type":"function","name":"previewWithdraw","inputs":[{"name":"assets","type":"uint256","internalType":"uint256"}],"outputs":[{"name":"","type":"uint256","internalType":"uint256"}],"stateMutability":"view"},{"type":"function","name":"rebalance","inputs":[{"name":"amount","type":"uint256","internalType":"uint256"}],"outputs":[],"stateMutability":"nonpayable"},{"type":"function","name":"rebalanceMin","inputs":[],"outputs":[{"name":"","type":"uint256","internalType":"uint256"}],"stateMutability":"view"},{"type":"function","name":"recipientA","inputs":[],"outputs":[{"name":"","type":"address","internalType":"address"}],"stateMutability":"view"},{"type":"function","name":"recipientB","inputs":[],"outputs":[{"name":"","type":"address","internalType":"address"}],"stateMutability":"view"},{"type":"function","name":"redeem","inputs":[{"name":"shares","type":"uint256","internalType":"uint256"},{"name":"receiver","type":"address","internalType":"address"},{"name":"owner_","type":"address","internalType":"address"}],"outputs":[{"name":"assets","type":"uint256","internalType":"uint256"}],"stateMutability":"nonpayable"},{"type":"function","name":"redemptionPeriod","inputs":[],"outputs":[{"name":"","type":"uint256","internalType":"uint256"}],"stateMutability":"view"},{"type":"function","name":"renounceOwnership","inputs":[],"outputs":[],"stateMutability":"nonpayable"},{"type":"function","name":"rescue","inputs":[{"name":"token","type":"address","internalType":"address"},{"name":"to","type":"address","internalType":"address"},{"name":"amount","type":"uint256","internalType":"uint256"}],"outputs":[],"stateMutability":"nonpayable"},{"type":"function","name":"setDepositCap","inputs":[{"name":"newCap","type":"uint256","internalType":"uint256"}],"outputs":[],"stateMutability":"nonpayable"},{"type":"function","name":"setDepositMin","inputs":[{"name":"newMin","type":"uint256","internalType":"uint256"}],"outputs":[],"stateMutability":"nonpayable"},{"type":"function","name":"setKeeper","inputs":[{"name":"keeper","type":"address","internalType":"address"},{"name":"enabled","type":"bool","internalType":"bool"}],"outputs":[],"stateMutability":"nonpayable"},{"type":"function","name":"setPerUserDepositCap","inputs":[{"name":"newCap","type":"uint256","internalType":"uint256"}],"outputs":[],"stateMutability":"nonpayable"},{"type":"function","name":"setRebalanceMin","inputs":[{"name":"minAmount","type":"uint256","internalType":"uint256"}],"outputs":[],"stateMutability":"nonpayable"},{"type":"function","name":"setRecipients","inputs":[{"name":"_A","type":"address","internalType":"address"},{"name":"_B","type":"address","internalType":"address"}],"outputs":[],"stateMutability":"nonpayable"},{"type":"function","name":"setRedemptionPeriod","inputs":[{"name":"newPeriod","type":"uint256","internalType":"uint256"}],"outputs":[],"stateMutability":"nonpayable"},{"type":"function","name":"setSplitBPS","inputs":[{"name":"_splitA_BPS","type":"uint16","internalType":"uint16"}],"outputs":[],"stateMutability":"nonpayable"},{"type":"function","name":"splitA_BPS","inputs":[],"outputs":[{"name":"","type":"uint16","internalType":"uint16"}],"stateMutability":"view"},{"type":"function","name":"symbol","inputs":[],"outputs":[{"name":"","type":"string","internalType":"string"}],"stateMutability":"view"},{"type":"function","name":"totalAssets","inputs":[],"outputs":[{"name":"","type":"uint256","internalType":"uint256"}],"stateMutability":"view"},{"type":"function","name":"totalSupply","inputs":[],"outputs":[{"name":"","type":"uint256","internalType":"uint256"}],"stateMutability":"view"},{"type":"function","name":"transfer","inputs":[{"name":"to","type":"address","internalType":"address"},{"name":"value","type":"uint256","internalType":"uint256"}],"outputs":[{"name":"","type":"bool","internalType":"bool"}],"stateMutability":"nonpayable"},{"type":"function","name":"transferFrom","inputs":[{"name":"from","type":"address","internalType":"address"},{"name":"to","type":"address","internalType":"address"},{"name":"value","type":"uint256","internalType":"uint256"}],"outputs":[{"name":"","type":"bool","internalType":"bool"}],"stateMutability":"nonpayable"},{"type":"function","name":"transferOwnership","inputs":[{"name":"newOwner","type":"address","internalType":"address"}],"outputs":[],"stateMutability":"nonpayable"},{"type":"function","name":"unlockedSharesOf","inputs":[{"name":"user","type":"address","internalType":"address"}],"outputs":[{"name":"","type":"uint256","internalType":"uint256"}],"stateMutability":"view"},{"type":"function","name":"unpause","inputs":[],"outputs":[],"stateMutability":"nonpayable"},{"type":"function","name":"withdraw","inputs":[{"name":"assets","type":"uint256","internalType":"uint256"},{"name":"receiver","type":"address","internalType":"address"},{"name":"owner_","type":"address","internalType":"address"}],"outputs":[{"name":"shares","type":"uint256","internalType":"uint256"}],"stateMutability":"nonpayable"},{"type":"event","name":"Approval","inputs":[{"name":"owner","type":"address","indexed":true,"internalType":"address"},{"name":"spender","type":"address","indexed":true,"internalType":"address"},{"name":"value","type":"uint256","indexed":false,"internalType":"uint256"}],"anonymous":false},{"type":"event","name":"Deposit","inputs":[{"name":"sender","type":"address","indexed":true,"internalType":"address"},{"name":"owner","type":"address","indexed":true,"internalType":"address"},{"name":"assets","type":"uint256","indexed":false,"internalType":"uint256"},{"name":"shares","type":"uint256","indexed":false,"internalType":"uint256"}],"anonymous":false},{"type":"event","name":"DepositCapUpdated","inputs":[{"name":"oldCap","type":"uint256","indexed":false,"internalType":"uint256"},{"name":"newCap","type":"uint256","indexed":false,"internalType":"uint256"}],"anonymous":false},{"type":"event","name":"DepositMinUpdated","inputs":[{"name":"oldMin","type":"uint256","indexed":false,"internalType":"uint256"},{"name":"newMin","type":"uint256","indexed":false,"internalType":"uint256"}],"anonymous":false},{"type":"event","name":"ExternalNavAdjusted","inputs":[{"name":"delta","type":"int256","indexed":false,"internalType":"int256"},{"name":"newNav","type":"uint256","indexed":false,"internalType":"uint256"}],"anonymous":false},{"type":"event","name":"KeeperSet","inputs":[{"name":"keeper","type":"address","indexed":true,"internalType":"address"},{"name":"enabled","type":"bool","indexed":false,"internalType":"bool"}],"anonymous":false},{"type":"event","name":"OwnershipTransferred","inputs":[{"name":"previousOwner","type":"address","indexed":true,"internalType":"address"},{"name":"newOwner","type":"address","indexed":true,"internalType":"address"}],"anonymous":false},{"type":"event","name":"Paused","inputs":[{"name":"account","type":"address","indexed":false,"internalType":"address"}],"anonymous":false},{"type":"event","name":"PerUserDepositCapUpdated","inputs":[{"name":"oldCap","type":"uint256","indexed":false,"internalType":"uint256"},{"name":"newCap","type":"uint256","indexed":false,"internalType":"uint256"}],"anonymous":false},{"type":"event","name":"RebalanceMinUpdated","inputs":[{"name":"minAmount","type":"uint256","indexed":false,"internalType":"uint256"}],"anonymous":false},{"type":"event","name":"Rebalanced","inputs":[{"name":"amount","type":"uint256","indexed":false,"internalType":"uint256"},{"name":"toA","type":"uint256","indexed":false,"internalType":"uint256"},{"name":"toB","type":"uint256","indexed":false,"internalType":"uint256"}],"anonymous":false},{"type":"event","name":"RecipientsUpdated","inputs":[{"name":"recipientA","type":"address","indexed":false,"internalType":"address"},{"name":"recipientB","type":"address","indexed":false,"internalType":"address"}],"anonymous":false},{"type":"event","name":"RedemptionPeriodUpdated","inputs":[{"name":"previous","type":"uint256","indexed":false,"internalType":"uint256"},{"name":"current","type":"uint256","indexed":false,"internalType":"uint256"}],"anonymous":false},{"type":"event","name":"Rescued","inputs":[{"name":"token","type":"address","indexed":true,"internalType":"address"},{"name":"to","type":"address","indexed":true,"internalType":"address"},{"name":"amount","type":"uint256","indexed":false,"internalType":"uint256"}],"anonymous":false},{"type":"event","name":"SplitUpdated","inputs":[{"name":"splitA_BPS","type":"uint16","indexed":false,"internalType":"uint16"}],"anonymous":false},{"type":"event","name":"Transfer","inputs":[{"name":"from","type":"address","indexed":true,"internalType":"address"},{"name":"to","type":"address","indexed":true,"internalType":"address"},{"name":"value","type":"uint256","indexed":false,"internalType":"uint256"}],"anonymous":false},{"type":"event","name":"Unpaused","inputs":[{"name":"account","type":"address","indexed":false,"internalType":"address"}],"anonymous":false},{"type":"event","name":"Withdraw","inputs":[{"name":"sender","type":"address","indexed":true,"internalType":"address"},{"name":"receiver","type":"address","indexed":true,"internalType":"address"},{"name":"owner","type":"address","indexed":true,"internalType":"address"},{"name":"assets","type":"uint256","indexed":false,"internalType":"uint256"},{"name":"shares","type":"uint256","indexed":false,"internalType":"uint256"}],"anonymous":false},{"type":"event","name":"WithdrawCanceled","inputs":[{"name":"user","type":"address","indexed":true,"internalType":"address"},{"name":"shares","type":"uint256","indexed":false,"internalType":"uint256"}],"anonymous":false},{"type":"event","name":"WithdrawInitiated","inputs":[{"name":"user","type":"address","indexed":true,"internalType":"address"},{"name":"shares","type":"uint256","indexed":false,"internalType":"uint256"},{"name":"unlockAt","type":"uint256","indexed":false,"internalType":"uint256"}],"anonymous":false},{"type":"error","name":"AddressEmptyCode","inputs":[{"name":"target","type":"address","internalType":"address"}]},{"type":"error","name":"AddressInsufficientBalance","inputs":[{"name":"account","type":"address","internalType":"address"}]},{"type":"error","name":"ERC20InsufficientAllowance","inputs":[{"name":"spender","type":"address","internalType":"address"},{"name":"allowance","type":"uint256","internalType":"uint256"},{"name":"needed","type":"uint256","internalType":"uint256"}]},{"type":"error","name":"ERC20InsufficientBalance","inputs":[{"name":"sender","type":"address","internalType":"address"},{"name":"balance","type":"uint256","internalType":"uint256"},{"name":"needed","type":"uint256","internalType":"uint256"}]},{"type":"error","name":"ERC20InvalidApprover","inputs":[{"name":"approver","type":"address","internalType":"address"}]},{"type":"error","name":"ERC20InvalidReceiver","inputs":[{"name":"receiver","type":"address","internalType":"address"}]},{"type":"error","name":"ERC20InvalidSender","inputs":[{"name":"sender","type":"address","internalType":"address"}]},{"type":"error","name":"ERC20InvalidSpender","inputs":[{"name":"spender","type":"address","internalType":"address"}]},{"type":"error","name":"ERC4626ExceededMaxDeposit","inputs":[{"name":"receiver","type":"address","internalType":"address"},{"name":"assets","type":"uint256","internalType":"uint256"},{"name":"max","type":"uint256","internalType":"uint256"}]},{"type":"error","name":"ERC4626ExceededMaxMint","inputs":[{"name":"receiver","type":"address","internalType":"address"},{"name":"shares","type":"uint256","internalType":"uint256"},{"name":"max","type":"uint256","internalType":"uint256"}]},{"type":"error","name":"ERC4626ExceededMaxRedeem","inputs":[{"name":"owner","type":"address","internalType":"address"},{"name":"shares","type":"uint256","internalType":"uint256"},{"name":"max","type":"uint256","internalType":"uint256"}]},{"type":"error","name":"ERC4626ExceededMaxWithdraw","inputs":[{"name":"owner","type":"address","internalType":"address"},{"name":"assets","type":"uint256","internalType":"uint256"},{"name":"max","type":"uint256","internalType":"uint256"}]},{"type":"error","name":"EnforcedPause","inputs":[]},{"type":"error","name":"ExceedsPending","inputs":[{"name":"requested","type":"uint256","internalType":"uint256"},{"name":"pending","type":"uint256","internalType":"uint256"}]},{"type":"error","name":"ExpectedPause","inputs":[]},{"type":"error","name":"FailedInnerCall","inputs":[]},{"type":"error","name":"InsufficientLiquidity","inputs":[{"name":"available","type":"uint256","internalType":"uint256"},{"name":"requested","type":"uint256","internalType":"uint256"}]},{"type":"error","name":"InsufficientUnlockedShares","inputs":[{"name":"available","type":"uint256","internalType":"uint256"},{"name":"requested","type":"uint256","internalType":"uint256"}]},{"type":"error","name":"MathOverflowedMulDiv","inputs":[]},{"type":"error","name":"OwnableInvalidOwner","inputs":[{"name":"owner","type":"address","internalType":"address"}]},{"type":"error","name":"OwnableUnauthorizedAccount","inputs":[{"name":"account","type":"address","internalType":"address"}]},{"type":"error","name":"PendingWithdrawalNotMature","inputs":[{"name":"unlockAt","type":"uint256","internalType":"uint256"}]},{"type":"error","name":"PendingWithdrawalRequired","inputs":[]},{"type":"error","name":"ReentrancyGuardReentrantCall","inputs":[]},{"type":"error","name":"SafeERC20FailedOperation","inputs":[{"name":"token","type":"address","internalType":"address"}]}],"bytecode":{"object":"0x60c06040523461004d5761001a610014610154565b91610392565b610022610052565b614d01610b0e8239608051818181611f20015281816143d30152614488015260a051815050614d0190f35b610058565b60405190565b5f80fd5b601f801991011690565b634e487b7160e01b5f52604160045260245ffd5b906100849061005c565b810190811060018060401b0382111761009c57604052565b610066565b906100b46100ad610052565b928361007a565b565b5f80fd5b60018060a01b031690565b6100ce906100ba565b90565b6100da816100c5565b036100e157565b5f80fd5b905051906100f2826100d1565b565b90565b610100816100f4565b0361010757565b5f80fd5b90505190610118826100f7565b565b909160608284031261014f5761014c610135845f85016100e5565b9361014381602086016100e5565b9360400161010b565b90565b6100b6565b61017261580f80380380610167816100a1565b92833981019061011a565b909192565b90565b61018e610189610193926100ba565b610177565b6100ba565b90565b61019f9061017a565b90565b6101ab90610196565b90565b6101b79061017a565b90565b6101c3906101ae565b90565b60018060401b0381116101e2576101de60209161005c565b0190565b610066565b906101f96101f4836101c6565b6100a1565b918252565b5f7f79546f6b656e205661756c742053686172650000000000000000000000000000910152565b61022f60126101e7565b9061023c602083016101fe565b565b610246610225565b90565b5f7f79546f6b656e0000000000000000000000000000000000000000000000000000910152565b61027a60066101e7565b9061028760208301610249565b565b610291610270565b90565b5f1b90565b906102a55f1991610294565b9181191691161790565b6102c36102be6102c8926100f4565b610177565b6100f4565b90565b90565b906102e36102de6102ea926102af565b6102cb565b8254610299565b9055565b90565b61030561030061030a926102ee565b610177565b6100f4565b90565b90565b61ffff1690565b61032b6103266103309261030d565b610177565b610310565b90565b60a01b90565b9061034961ffff60a01b91610333565b9181191691161790565b61036761036261036c92610310565b610177565b610310565b90565b90565b9061038761038261038e92610353565b61036f565b8254610339565b9055565b6103c3906103ac6103a76104249594926101a2565b6101ba565b6103b461023e565b906103bd610289565b92610452565b6103cf5f1960076102ce565b6103e26103db5f6102f1565b60086102ce565b6103f56103ee5f6102f1565b60096102ce565b61040a610403612134610317565b600b610372565b61041d6104165f6102f1565b600c6102ce565b600e6102ce565b565b90565b61043d61043861044292610426565b610177565b6100f4565b90565b61044f6001610429565b90565b9061045e9392916104bf565b610470610469610445565b60066102ce565b565b9061048160ff60a01b91610333565b9181191691161790565b151590565b6104999061048b565b90565b90565b906104b46104af6104bb92610490565b61049c565b8254610472565b9055565b906104cb939291610522565b6104d65f600561049f565b565b6104ec6104e76104f1926102ee565b610177565b6100ba565b90565b6104fd906104d8565b90565b610509906100c5565b9052565b9190610520905f60208501940190610500565b565b92909161052e926105a5565b8061054961054361053e5f6104f4565b6100c5565b916100c5565b1461055957610557906108ba565b565b61057c6105655f6104f4565b5f918291631e4fbdf760e01b83526004830161050d565b0390fd5b90565b60ff1690565b61059d6105986105a292610580565b610177565b610583565b90565b916105af916105d8565b6105b881610a2a565b905f146105c8575b60a052608052565b506105d36012610589565b6105c0565b906105e291610816565b565b5190565b634e487b7160e01b5f52602260045260245ffd5b906001600283049216801561061c575b602083101461061757565b6105e8565b91607f169161060c565b5f5260205f2090565b601f602091010490565b1b90565b919060086106589102916106525f1984610639565b92610639565b9181191691161790565b9190610678610673610680936102af565b6102cb565b90835461063d565b9055565b5f90565b61069a91610694610684565b91610662565b565b5b8181106106a8575050565b806106b55f600193610688565b0161069d565b9190601f81116106cb575b505050565b6106d76106fc93610626565b9060206106e38461062f565b83019310610704575b6106f59061062f565b019061069c565b5f80806106c6565b91506106f5819290506106ec565b1c90565b90610726905f1990600802610712565b191690565b8161073591610716565b906002021790565b90610747816105e4565b9060018060401b038211610805576107698261076385546105fc565b856106bb565b602090601f831160011461079d5791809161078c935f92610791575b505061072b565b90555b565b90915001515f80610785565b601f198316916107ac85610626565b925f5b8181106107ed575091600293918560019694106107d3575b5050500201905561078f565b6107e3910151601f841690610716565b90555f80806107c7565b919360206001819287870151815501950192016107af565b610066565b906108149161073d565b565b9061082561082c92600361080a565b600461080a565b565b5f1c90565b60018060a01b031690565b61084a61084f9161082e565b610833565b90565b61085c905461083e565b90565b9061087060018060a01b0391610294565b9181191691161790565b6108839061017a565b90565b61088f9061087a565b90565b90565b906108aa6108a56108b192610886565b610892565b825461085f565b9055565b5f0190565b6108c46005610852565b6108cf826005610895565b906109036108fd7f8be0079c531659141344cd1fd0a4f28419497f9722a3daafe3b4186f6b6457e093610886565b91610886565b9161090c610052565b80610916816108b5565b0390a3565b5f90565b5f90565b61092c9061087a565b90565b60018060401b03811161094b5761094760209161005c565b0190565b610066565b9061096261095d8361092f565b6100a1565b918252565b606090565b3d5f146109875761097c3d610950565b903d5f602084013e5b565b61098f610967565b90610985565b5190565b90565b6109b06109ab6109b592610999565b610177565b6100f4565b90565b906020828203126109d1576109ce915f0161010b565b90565b6100b6565b6109ea6109e56109ef92610583565b610177565b6100f4565b90565b610a06610a01610a0b926100f4565b610177565b610583565b90565b610a22610a1d610a27926102ee565b610177565b610583565b90565b5f610a478192610a3861091b565b50610a4161091f565b50610923565b610a4f610052565b610a7b81610a6c60046020830163313ce56760e01b8152016108b5565b6020820181038252038261007a565b602081019051915afa610a8c61096c565b9080610ae9575b610aa7575b505f90610aa45f610a0e565b90565b610ac1906020610ab682610995565b8183010191016109b8565b80610ad5610acf60ff6109d6565b916100f4565b11610a985790610ae66001926109f2565b90565b50610af381610995565b610b06610b00602061099c565b916100f4565b1015610a9356fe60806040526004361015610013575b6115c9565b61001d5f356103cc565b806301e1d114146103c757806304fd703e146103c257806306fdde03146103bd57806307a2d13a146103b8578063095ea7b3146103b35780630a28a477146103ae57806316de1335146103a9578063175f7098146103a457806318160ddd1461039f57806320ff430b1461039a57806323b872dd1461039557806328ad9997146103905780632d9d53361461038b578063313ce5671461038657806338d52e0f146103815780633af48ce91461037c5780633f4ba83a14610377578063402d267d146103725780634b5db8f81461036d5780634cdad506146103685780635c975abb146103635780635e14f1de1461035e5780636ba42aaa146103595780636dbd3c94146103545780636e553f651461034f57806370a082311461034a578063715018a6146103455780637e108d52146103405780638456cb591461033b57806386651203146103365780638c6c2785146103315780638da5cb5b1461032c5780639343ed321461032757806394bf804d1461032257806395d89b411461031d5780639c176969146103185780639f01f7ba14610313578063a9059cbb1461030e578063b3d7f6b914610309578063b460af9414610304578063ba087652146102ff578063bad95ca2146102fa578063c63d75b6146102f5578063c6e6f592146102f0578063ce96cb77146102eb578063d1b9e853146102e6578063d905777e146102e1578063d9d4410a146102dc578063dbd5edc7146102d7578063dd62ed3e146102d2578063df2b0cf3146102cd578063e16b03a3146102c8578063ed87cf46146102c3578063ef79537f146102be578063ef8b30f7146102b9578063f09e8cd4146102b4578063f2fde38b146102af578063f44136a1146102aa5763f49930180361000e57611596565b61155e565b6114f9565b6114c4565b611480565b61144b565b6113fd565b6113b9565b611386565b611350565b61131b565b6112d7565b611293565b61125f565b6111da565b6111a5565b611170565b61113d565b6110c3565b61108d565b61101e565b610fe8565b610fb5565b610f82565b610f4d565b610f17565b610ee4565b610eaf565b610e7a565b610e38565b610e05565b610dd2565b610d9f565b610d6a565b610d34565b610cd2565b610c8e565b610bfe565b610b6a565b610b35565b610b02565b610a85565b610a52565b610a1d565b6109a8565b610951565b6108f4565b610859565b6107e7565b6107b3565b610744565b61070f565b6106bd565b61065b565b610625565b610562565b61052d565b61048f565b610414565b60e01c90565b60405190565b5f80fd5b5f80fd5b5f9103126103ea57565b6103dc565b90565b6103fb906103ef565b9052565b9190610412905f602085019401906103f2565b565b34610444576104243660046103e0565b61044061042f6116e0565b6104376103d2565b918291826103ff565b0390f35b6103d8565b610452816103ef565b0361045957565b5f80fd5b9050359061046a82610449565b565b9060208282031261048557610482915f0161045d565b90565b6103dc565b5f0190565b346104bd576104a76104a236600461046c565b611875565b6104af6103d2565b806104b98161048a565b0390f35b6103d8565b5190565b60209181520190565b90825f9392825e0152565b601f801991011690565b61050361050c602093610511936104fa816104c2565b938480936104c6565b958691016104cf565b6104da565b0190565b61052a9160208201915f8184039101526104e4565b90565b3461055d5761053d3660046103e0565b61055961054861199c565b6105506103d2565b91829182610515565b0390f35b6103d8565b346105925761058e61057d61057836600461046c565b6119b2565b6105856103d2565b918291826103ff565b0390f35b6103d8565b60018060a01b031690565b6105ab90610597565b90565b6105b7816105a2565b036105be57565b5f80fd5b905035906105cf826105ae565b565b91906040838203126105f957806105ed6105f6925f86016105c2565b9360200161045d565b90565b6103dc565b151590565b61060c906105fe565b9052565b9190610623905f60208501940190610603565b565b346106565761065261064161063b3660046105d1565b906119cd565b6106496103d2565b91829182610610565b0390f35b6103d8565b3461068b5761068761067661067136600461046c565b6119ef565b61067e6103d2565b918291826103ff565b0390f35b6103d8565b91906040838203126106b857806106ac6106b5925f86016105c2565b936020016105c2565b90565b6103dc565b346106ec576106d66106d0366004610690565b90611bcf565b6106de6103d2565b806106e88161048a565b0390f35b6103d8565b9060208282031261070a57610707915f016105c2565b90565b6103dc565b3461073f5761073b61072a6107253660046106f1565b611c1c565b6107326103d2565b918291826103ff565b0390f35b6103d8565b34610774576107543660046103e0565b61077061075f611c9c565b6107676103d2565b918291826103ff565b0390f35b6103d8565b90916060828403126107ae576107ab610794845f85016105c2565b936107a281602086016105c2565b9360400161045d565b90565b6103dc565b346107e2576107cc6107c6366004610779565b91611dd4565b6107d46103d2565b806107de8161048a565b0390f35b6103d8565b34610818576108146108036107fd366004610779565b91611de1565b61080b6103d2565b91829182610610565b0390f35b6103d8565b1c90565b90565b610834906008610839930261081d565b610821565b90565b906108479154610824565b90565b610856600c5f9061083c565b90565b34610889576108693660046103e0565b61088561087461084a565b61087c6103d2565b918291826103ff565b0390f35b6103d8565b90565b6108a56108a06108aa92610597565b61088e565b610597565b90565b6108b690610891565b90565b6108c2906108ad565b90565b906108cf906108b9565b5f5260205260405f2090565b6108f1906108ec600f915f926108c5565b61083c565b90565b346109245761092061090f61090a3660046106f1565b6108db565b6109176103d2565b918291826103ff565b0390f35b6103d8565b60ff1690565b61093890610929565b9052565b919061094f905f6020850194019061092f565b565b34610981576109613660046103e0565b61097d61096c611e79565b6109746103d2565b9182918261093c565b0390f35b6103d8565b61098f906105a2565b9052565b91906109a6905f60208501940190610986565b565b346109d8576109b83660046103e0565b6109d46109c3611f12565b6109cb6103d2565b91829182610993565b0390f35b6103d8565b60018060a01b031690565b6109f89060086109fd930261081d565b6109dd565b90565b90610a0b91546109e8565b90565b610a1a600b5f90610a00565b90565b34610a4d57610a2d3660046103e0565b610a49610a38610a0e565b610a406103d2565b91829182610993565b0390f35b6103d8565b34610a8057610a623660046103e0565b610a6a611f63565b610a726103d2565b80610a7c8161048a565b0390f35b6103d8565b34610ab557610ab1610aa0610a9b3660046106f1565b611f6d565b610aa86103d2565b918291826103ff565b0390f35b6103d8565b61ffff1690565b610aca81610aba565b03610ad157565b5f80fd5b90503590610ae282610ac1565b565b90602082820312610afd57610afa915f01610ad5565b90565b6103dc565b34610b3057610b1a610b15366004610ae4565b61220a565b610b226103d2565b80610b2c8161048a565b0390f35b6103d8565b34610b6557610b61610b50610b4b36600461046c565b612215565b610b586103d2565b918291826103ff565b0390f35b6103d8565b34610b9a57610b7a3660046103e0565b610b96610b85612253565b610b8d6103d2565b91829182610610565b0390f35b6103d8565b61ffff1690565b610bb6906008610bbb930261081d565b610b9f565b90565b90610bc99154610ba6565b90565b610bd9600b601490610bbe565b90565b610be590610aba565b9052565b9190610bfc905f60208501940190610bdc565b565b34610c2e57610c0e3660046103e0565b610c2a610c19610bcc565b610c216103d2565b91829182610be9565b0390f35b6103d8565b90610c3d906108b9565b5f5260205260405f2090565b60ff1690565b610c5f906008610c64930261081d565b610c49565b90565b90610c729154610c4f565b90565b610c8b90610c866011915f92610c33565b610c67565b90565b34610cbe57610cba610ca9610ca43660046106f1565b610c75565b610cb16103d2565b91829182610610565b0390f35b6103d8565b610ccf600a5f90610a00565b90565b34610d0257610ce23660046103e0565b610cfe610ced610cc3565b610cf56103d2565b91829182610993565b0390f35b6103d8565b9190604083820312610d2f5780610d23610d2c925f860161045d565b936020016105c2565b90565b6103dc565b34610d6557610d61610d50610d4a366004610d07565b906123fb565b610d586103d2565b918291826103ff565b0390f35b6103d8565b34610d9a57610d96610d85610d803660046106f1565b612410565b610d8d6103d2565b918291826103ff565b0390f35b6103d8565b34610dcd57610daf3660046103e0565b610db7612453565b610dbf6103d2565b80610dc98161048a565b0390f35b6103d8565b34610e0057610dea610de536600461046c565b612646565b610df26103d2565b80610dfc8161048a565b0390f35b6103d8565b34610e3357610e153660046103e0565b610e1d61266d565b610e256103d2565b80610e2f8161048a565b0390f35b6103d8565b34610e6657610e50610e4b36600461046c565b6126db565b610e586103d2565b80610e628161048a565b0390f35b6103d8565b610e7760095f9061083c565b90565b34610eaa57610e8a3660046103e0565b610ea6610e95610e6b565b610e9d6103d2565b918291826103ff565b0390f35b6103d8565b34610edf57610ebf3660046103e0565b610edb610eca612707565b610ed26103d2565b91829182610993565b0390f35b6103d8565b34610f1257610efc610ef736600461046c565b612781565b610f046103d2565b80610f0e8161048a565b0390f35b6103d8565b34610f4857610f44610f33610f2d366004610d07565b90612822565b610f3b6103d2565b918291826103ff565b0390f35b6103d8565b34610f7d57610f5d3660046103e0565b610f79610f68612837565b610f706103d2565b91829182610515565b0390f35b6103d8565b34610fb057610f9a610f9536600461046c565b6128b1565b610fa26103d2565b80610fac8161048a565b0390f35b6103d8565b34610fe357610fcd610fc836600461046c565b6129f0565b610fd56103d2565b80610fdf8161048a565b0390f35b6103d8565b3461101957611015611004610ffe3660046105d1565b906129fb565b61100c6103d2565b91829182610610565b0390f35b6103d8565b3461104e5761104a61103961103436600461046c565b612a1d565b6110416103d2565b918291826103ff565b0390f35b6103d8565b90916060828403126110885761108561106e845f850161045d565b9361107c81602086016105c2565b936040016105c2565b90565b6103dc565b346110be576110ba6110a96110a3366004611053565b91612ac3565b6110b16103d2565b918291826103ff565b0390f35b6103d8565b346110f4576110f06110df6110d9366004611053565b91612b6c565b6110e76103d2565b918291826103ff565b0390f35b6103d8565b90565b611105816110f9565b0361110c57565b5f80fd5b9050359061111d826110fc565b565b9060208282031261113857611135915f01611110565b90565b6103dc565b3461116b5761115561115036600461111f565b612e60565b61115d6103d2565b806111678161048a565b0390f35b6103d8565b346111a05761119c61118b6111863660046106f1565b612e6b565b6111936103d2565b918291826103ff565b0390f35b6103d8565b346111d5576111d16111c06111bb36600461046c565b612e88565b6111c86103d2565b918291826103ff565b0390f35b6103d8565b3461120a576112066111f56111f03660046106f1565b612e9f565b6111fd6103d2565b918291826103ff565b0390f35b6103d8565b611218816105fe565b0361121f57565b5f80fd5b905035906112308261120f565b565b919060408382031261125a578061124e611257925f86016105c2565b93602001611223565b90565b6103dc565b3461128e57611278611272366004611232565b90612fc0565b6112806103d2565b8061128a8161048a565b0390f35b6103d8565b346112c3576112bf6112ae6112a93660046106f1565b612fcc565b6112b66103d2565b918291826103ff565b0390f35b6103d8565b6112d4600d5f9061083c565b90565b34611307576112e73660046103e0565b6113036112f26112c8565b6112fa6103d2565b918291826103ff565b0390f35b6103d8565b61131860075f9061083c565b90565b3461134b5761132b3660046103e0565b61134761133661130c565b61133e6103d2565b918291826103ff565b0390f35b6103d8565b346113815761137d61136c611366366004610690565b90613060565b6113746103d2565b918291826103ff565b0390f35b6103d8565b346113b45761139e61139936600461046c565b6130e1565b6113a66103d2565b806113b08161048a565b0390f35b6103d8565b346113e9576113c93660046103e0565b6113e56113d46130ec565b6113dc6103d2565b918291826103ff565b0390f35b6103d8565b6113fa60085f9061083c565b90565b3461142d5761140d3660046103e0565b6114296114186113ee565b6114206103d2565b918291826103ff565b0390f35b6103d8565b611448906114436010915f926108c5565b61083c565b90565b3461147b576114776114666114613660046106f1565b611432565b61146e6103d2565b918291826103ff565b0390f35b6103d8565b346114b0576114ac61149b61149636600461046c565b61318d565b6114a36103d2565b918291826103ff565b0390f35b6103d8565b6114c1600e5f9061083c565b90565b346114f4576114d43660046103e0565b6114f06114df6114b5565b6114e76103d2565b918291826103ff565b0390f35b6103d8565b346115275761151161150c3660046106f1565b613235565b6115196103d2565b806115238161048a565b0390f35b6103d8565b60409061155561155c949695939661154b60608401985f8501906103f2565b60208301906103f2565b01906103f2565b565b346115915761158d6115796115743660046106f1565b613240565b6115849391936103d2565b9384938461152c565b0390f35b6103d8565b346115c4576115ae6115a936600461046c565b613724565b6115b66103d2565b806115c08161048a565b0390f35b6103d8565b5f80fd5b5f90565b6115da90610891565b90565b6115e6906115d1565b90565b6115f2906108ad565b90565b6115fe906108ad565b90565b634e487b7160e01b5f52604160045260245ffd5b9061161f906104da565b810190811067ffffffffffffffff82111761163957604052565b611601565b60e01b90565b9050519061165182610449565b565b9060208282031261166c57611669915f01611644565b90565b6103dc565b6116796103d2565b3d5f823e3d90fd5b5f1c90565b61169261169791611681565b610821565b90565b6116a49054611686565b90565b634e487b7160e01b5f52601160045260245ffd5b6116ca6116d0919392936103ef565b926103ef565b82018092116116db57565b6116a7565b6116e86115cd565b5061173860206117066117016116fc611f12565b6115dd565b6115e9565b6370a082319061172d611718306115f5565b926117216103d2565b9586948593849361163e565b835260048301610993565b03915afa801561178f5761175e915f91611761575b50611758600d61169a565b906116bb565b90565b611782915060203d8111611788575b61177a8183611615565b810190611653565b5f61174d565b503d611770565b611671565b6117a5906117a061372f565b611824565b565b5f1b90565b906117b85f19916117a7565b9181191691161790565b6117d66117d16117db926103ef565b61088e565b6103ef565b90565b90565b906117f66117f16117fd926117c2565b6117de565b82546117ac565b9055565b91602061182292949361181b60408201965f8301906103f2565b01906103f2565b565b61182e600961169a565b6118398260096117e1565b907fafb7e08f626725a8484f2309d137603927effd76fb01c928391646feaeaf8553916118706118676103d2565b92839283611801565b0390a1565b61187e90611794565b565b606090565b634e487b7160e01b5f52602260045260245ffd5b90600160028304921680156118b9575b60208310146118b457565b611885565b91607f16916118a9565b60209181520190565b5f5260205f2090565b905f92918054906118ef6118e883611899565b80946118c3565b916001811690815f14611946575060011461190a575b505050565b61191791929394506118cc565b915f925b81841061192e57505001905f8080611905565b6001816020929593955484860152019101929061191b565b92949550505060ff19168252151560200201905f8080611905565b9061196b916118d5565b90565b9061198e6119879261197e6103d2565b93848092611961565b0383611615565b565b6119999061196e565b90565b6119a4611880565b506119af6003611990565b90565b6119c6906119be6115cd565b505f906137b8565b90565b5f90565b6119ea916119d96119c9565b506119e261380d565b91909161381a565b600190565b611a04906119fb6115cd565b5060019061382a565b90565b90611a1991611a1461372f565b611b29565b565b90565b611a32611a2d611a3792611a1b565b61088e565b610597565b90565b611a4390611a1e565b90565b5f7f7a65726f20726563697069656e74000000000000000000000000000000000000910152565b611a7a600e6020926104c6565b611a8381611a46565b0190565b611a9c9060208101905f818303910152611a6d565b90565b15611aa657565b611aae6103d2565b62461bcd60e51b815280611ac460048201611a87565b0390fd5b90611ad960018060a01b03916117a7565b9181191691161790565b90565b90611afb611af6611b02926108b9565b611ae3565b8254611ac8565b9055565b916020611b27929493611b2060408201965f830190610986565b0190610986565b565b80611b44611b3e611b395f611a3a565b6105a2565b916105a2565b141580611ba7575b611b5590611a9f565b611b6081600a611ae6565b611b6b82600b611ae6565b907fb46243848fd4cfcaa63343d3207d276896a2fb784a5bba9c37f737170bf5fe4291611ba2611b996103d2565b92839283611b06565b0390a1565b50611b5582611bc6611bc0611bbb5f611a3a565b6105a2565b916105a2565b14159050611b4c565b90611bd991611a07565b565b611bef611bea611bf492611a1b565b61088e565b6103ef565b90565b611c06611c0c919392936103ef565b926103ef565b8203918211611c1757565b6116a7565b611c246115cd565b50611c2e81612410565b90611c43611c3e600f83906108c5565b61169a565b9081611c57611c515f611bdb565b916103ef565b14611c9757611c81611c7b611c76611c71429460106108c5565b61169a565b6103ef565b916103ef565b1015611c9357611c9091611bf7565b90565b5090565b505090565b611ca46115cd565b50611caf600261169a565b90565b90611cc59291611cc061372f565b611d49565b565b5f7f63616e6e6f742072657363756520617373657400000000000000000000000000910152565b611cfb60136020926104c6565b611d0481611cc7565b0190565b611d1d9060208101905f818303910152611cee565b90565b15611d2757565b611d2f6103d2565b62461bcd60e51b815280611d4560048201611d08565b0390fd5b919091611d7081611d69611d63611d5e611f12565b6105a2565b916105a2565b1415611d20565b611d84611d7c826115dd565b8484916138d3565b919091611dcf611dbd611db77f3af790fafda720819b2fc6e15090606e81154e0ac9a92d38ecad006d99d20ecc936108b9565b936108b9565b93611dc66103d2565b918291826103ff565b0390a3565b90611ddf9291611cb2565b565b91611e0b92611dee6119c9565b50611e03611dfa61380d565b82908491613961565b9190916139ed565b600190565b5f90565b611e1d90610891565b90565b611e2990611e14565b90565b611e35906108ad565b90565b611e4181610929565b03611e4857565b5f80fd5b90505190611e5982611e38565b565b90602082820312611e7457611e71915f01611e4c565b90565b6103dc565b611e81611e10565b50611eb56020611e9f611e9a611e95611f12565b611e20565b611e2c565b63313ce56790611ead6103d2565b93849261163e565b82528180611ec56004820161048a565b03915afa908115611f09575f91611edb575b5090565b611efc915060203d8111611f02575b611ef48183611615565b810190611e5b565b5f611ed7565b503d611eea565b611671565b5f90565b611f1a611f0e565b50611f447f00000000000000000000000000000000000000000000000000000000000000006115e9565b90565b611f4f61372f565b611f57611f59565b565b611f61613b23565b565b611f6b611f47565b565b611f756115cd565b50611f7e612253565b61207257611f8a6116e0565b80611fa6611fa0611f9b600761169a565b6103ef565b916103ef565b10155f1461205a5750611fb85f611bdb565b5b90611fc4600961169a565b611fd6611fd05f611bdb565b916103ef565b1461205657611fe7611fec91612410565b6119b2565b80612008612002611ffd600961169a565b6103ef565b916103ef565b1015612048576120219061201c600961169a565b611bf7565b908161203561202f836103ef565b916103ef565b105f1461204157505b90565b905061203e565b50506120535f611bdb565b90565b5090565b61206d90612068600761169a565b611bf7565b611fb9565b5061207c5f611bdb565b90565b6120909061208b61372f565b6121a0565b565b90565b6120a96120a46120ae92612092565b61088e565b610aba565b90565b6120bc612710612095565b90565b5f7f73706c6974203e20313030250000000000000000000000000000000000000000910152565b6120f3600c6020926104c6565b6120fc816120bf565b0190565b6121159060208101905f8183039101526120e6565b90565b1561211f57565b6121276103d2565b62461bcd60e51b81528061213d60048201612100565b0390fd5b60a01b90565b9061215761ffff60a01b91612141565b9181191691161790565b61217561217061217a92610aba565b61088e565b610aba565b90565b90565b9061219561219061219c92612161565b61217d565b8254612147565b9055565b6121c4816121bd6121b76121b26120b1565b610aba565b91610aba565b1115612118565b6121cf81600b612180565b6122057f96bcd82a7097a1ecf42e848d65159d42bbe6abd8e499e0eeb8d21b795ab2b36e916121fc6103d2565b91829182610be9565b0390a1565b6122139061207f565b565b612229906122216115cd565b505f906137b8565b90565b60a01c90565b61223e6122439161222c565b610c49565b90565b6122509054612232565b90565b61225b6119c9565b506122666005612246565b90565b9061227c9291612277613b2d565b61227f565b90565b90612292929161228d613b83565b6123a1565b9061229b613be8565b565b5f7f6465706f7369742062656c6f77206d696e696d756d0000000000000000000000910152565b6122d160156020926104c6565b6122da8161229d565b0190565b6122f39060208101905f8183039101526122c4565b90565b156122fd57565b6123056103d2565b62461bcd60e51b81528061231b600482016122de565b0390fd5b5f7f6578636565647320636170000000000000000000000000000000000000000000910152565b612353600b6020926104c6565b61235c8161231f565b0190565b6123759060208101905f818303910152612346565b90565b1561237f57565b6123876103d2565b62461bcd60e51b81528061239d60048201612360565b0390fd5b906123f89291506123ce816123c76123c16123bc600861169a565b6103ef565b916103ef565b10156122f6565b6123f3816123ec6123e66123e186611f6d565b6103ef565b916103ef565b1115612378565b613bfc565b90565b9061240d916124086115cd565b612269565b90565b61242661242b9161241f6115cd565b505f6108c5565b61169a565b90565b61243661372f565b61243e612440565b565b61245161244c5f611a3a565b613c6b565b565b61245b61242e565b565b61246e90612469613b2d565b612470565b565b6124819061247c613b83565b61250d565b612489613be8565b565b5f7f7a65726f20736861726573000000000000000000000000000000000000000000910152565b6124bf600b6020926104c6565b6124c88161248b565b0190565b6124e19060208101905f8183039101526124b2565b90565b156124eb57565b6124f36103d2565b62461bcd60e51b815280612509600482016124cc565b0390fd5b6125298161252361251d5f611bdb565b916103ef565b116124e4565b61253233611c1c565b8061254561253f846103ef565b916103ef565b1061262857506125738161256d61255e600f33906108c5565b916125688361169a565b6116bb565b906117e1565b61258742612581600e61169a565b906116bb565b806125ad6125a76125a261259d601033906108c5565b61169a565b6103ef565b916103ef565b1161260d575b50336125c96125c4601033906108c5565b61169a565b6125f37ff908b12fe0d8dc1ff4fda115e5bace3a7ad1aad889daca8e638ca0b29f806577926108b9565b926126086125ff6103d2565b92839283611801565b0390a2565b6126229061261d601033906108c5565b6117e1565b5f6125b3565b6126425f928392635557782760e01b845260048401611801565b0390fd5b61264f9061245d565b565b61265961372f565b612661612663565b565b61266b613d2d565b565b612675612651565b565b6126889061268361372f565b61268a565b565b612694600761169a565b61269f8260076117e1565b907ffbe912fdd0185617e8cafd12d97b59175b90e15f5c629faf6413469af54ee080916126d66126cd6103d2565b92839283611801565b0390a1565b6126e490612677565b565b6126f26126f791611681565b6109dd565b90565b61270490546126e6565b90565b61270f611f0e565b5061271a60056126fa565b90565b61272e9061272961372f565b612730565b565b61273a600861169a565b6127458260086117e1565b907f0dcdbc9335d5a201f9468fb9834fe45d13a7ab04a01d25490ecc17d60c907a5d9161277c6127736103d2565b92839283611801565b0390a1565b61278a9061271d565b565b9061279f929161279a613b2d565b6127a2565b90565b906127b592916127b0613b83565b6127c0565b906127be613be8565b565b9061281f92915061281a6127d382612a1d565b6127f9816127f26127ec6127e7600861169a565b6103ef565b916103ef565b10156122f6565b61281361280d61280886611f6d565b6103ef565b916103ef565b1115612378565b613d37565b90565b906128349161282f6115cd565b61278c565b90565b61283f611880565b5061284a6004611990565b90565b61285e9061285961372f565b612860565b565b61286a600e61169a565b61287582600e6117e1565b907f6b3de8603d607fa19c79b6a8efb77b6fb09d98921b8e429f9d3b14267d0d6cc6916128ac6128a36103d2565b92839283611801565b0390a1565b6128ba9061284d565b565b6128cd906128c8613b83565b6128d7565b6128d5613be8565b565b6128f3816128ed6128e75f611bdb565b916103ef565b116124e4565b612907612902600f33906108c5565b61169a565b8161291a612914836103ef565b916103ef565b116129d15761292d61293e918390611bf7565b612939600f33906108c5565b6117e1565b61295261294d600f33906108c5565b61169a565b61296461295e5f611bdb565b916103ef565b146129af575b336129aa6129987f857c9ecc6414cf329eefb896c1b8329012fdc118607b9b26dec10cd69f2d1458926108b9565b926129a16103d2565b918291826103ff565b0390a2565b6129cc6129bb5f611bdb565b6129c7601033906108c5565b6117e1565b61296a565b906129ec5f9283926329bffdad60e21b845260048401611801565b0390fd5b6129f9906128bc565b565b612a1891612a076119c9565b50612a1061380d565b9190916139ed565b600190565b612a3290612a296115cd565b506001906137b8565b90565b90612a49939291612a44613b83565b612a54565b90612a52613be8565b565b93929350612a6a612a64826119ef565b85613da7565b612a726130ec565b80612a85612a7f846103ef565b916103ef565b10612aa55750612aa391612a9b91908591613e76565b928390613ee9565b565b612abf5f92839263a17e11d560e01b845260048401611801565b0390fd5b90612ad69291612ad16115cd565b612a35565b90565b90612aed939291612ae8613b83565b612af8565b90612af6613be8565b565b93929391909150612b0a848390613da7565b612b1382612215565b612b1b6130ec565b80612b2e612b28846103ef565b916103ef565b10612b4e57505090612b46612b4c9282908691613f78565b93613ee9565b565b612b685f92839263a17e11d560e01b845260048401611801565b0390fd5b90612b7f9291612b7a6115cd565b612ad9565b90565b612b8e612b9391611681565b610c49565b90565b612ba09054612b82565b90565b5f7f6e6f74206b65657065722f6f776e657200000000000000000000000000000000910152565b612bd760106020926104c6565b612be081612ba3565b0190565b612bf99060208101905f818303910152612bca565b90565b15612c0357565b612c0b6103d2565b62461bcd60e51b815280612c2160048201612be4565b0390fd5b612c5290612c3d612c3860113390610c33565b612b96565b8015612c54575b612c4d90612bfc565b612d82565b565b50612c4d33612c72612c6c612c67612707565b6105a2565b916105a2565b149050612c44565b612c8e612c89612c9392611a1b565b61088e565b6110f9565b90565b612c9f906110f9565b600160ff1b8114612caf575f0390565b6116a7565b612cc8612cc3612ccd926110f9565b61088e565b6103ef565b90565b5f7f6e617620756e646572666c6f7700000000000000000000000000000000000000910152565b612d04600d6020926104c6565b612d0d81612cd0565b0190565b612d269060208101905f818303910152612cf7565b90565b15612d3057565b612d386103d2565b62461bcd60e51b815280612d4e60048201612d11565b0390fd5b612d5b906110f9565b9052565b916020612d80929493612d7960408201965f830190612d52565b01906103f2565b565b80612d95612d8f5f612c7a565b916110f9565b12155f14612e0857612dc2612dbb612dac83612cb4565b612db6600d61169a565b6116bb565b600d6117e1565b5b612dcd600d61169a565b7ff9a5820777e0a33afd36484cd725aec5e42b74ae960a954fa9cd6b4b3bb2fc2391612e03612dfa6103d2565b92839283612d5f565b0390a1565b612e5b612e54612e1f612e1a84612c96565b612cb4565b612e4581612e3e612e38612e33600d61169a565b6103ef565b916103ef565b1115612d29565b612e4f600d61169a565b611bf7565b600d6117e1565b612dc3565b612e6990612c25565b565b612e80612e8591612e7a6115cd565b50611f6d565b612e88565b90565b612e9c90612e946115cd565b505f9061382a565b90565b612eb190612eab6115cd565b50612fcc565b80612ec4612ebe5f611bdb565b916103ef565b14612f0157612ed2906119b2565b612eda6130ec565b9080612eee612ee8846103ef565b916103ef565b115f14612efa57505b90565b9050612ef7565b50612f0b5f611bdb565b90565b90612f2091612f1b61372f565b612f67565b565b90612f2e60ff916117a7565b9181191691161790565b612f41906105fe565b90565b90565b90612f5c612f57612f6392612f38565b612f44565b8254612f22565b9055565b612f7c82612f7760118490610c33565b612f47565b612fbb612fa97f8dd62d4e1f60b96148552898e743aa2b571686baa26f4f1b647565dc3996c1a7926108b9565b92612fb26103d2565b91829182610610565b0390a2565b90612fca91612f0e565b565b612fd46115cd565b50612fe9612fe4600f83906108c5565b61169a565b9081612ffd612ff75f611bdb565b916103ef565b1461303c5761302761302161301c613017429460106108c5565b61169a565b6103ef565b916103ef565b1061302f5790565b506130395f611bdb565b90565b50506130475f611bdb565b90565b90613054906108b9565b5f5260205260405f2090565b6130859161307b613080926130736115cd565b50600161304a565b6108c5565b61169a565b90565b6130999061309461372f565b61309b565b565b6130a681600c6117e1565b6130dc7f172986b16dc05e54bbccfebe40aa3108d009f459e905c48f287dcc2d83e3791a916130d36103d2565b918291826103ff565b0390a1565b6130ea90613088565b565b6130f46115cd565b50613144602061311261310d613108611f12565b6115dd565b6115e9565b6370a0823190613139613124306115f5565b9261312d6103d2565b9586948593849361163e565b835260048301610993565b03915afa908115613188575f9161315a575b5090565b61317b915060203d8111613181575b6131738183611615565b810190611653565b5f613156565b503d613169565b611671565b6131956115cd565b50806131b26131ac6131a7600861169a565b6103ef565b916103ef565b106131c3576131c090613fe8565b90565b506131cd5f611bdb565b90565b6131e1906131dc61372f565b6131e3565b565b806131fe6131f86131f35f611a3a565b6105a2565b916105a2565b1461320e5761320c90613c6b565b565b61323161321a5f611a3a565b5f918291631e4fbdf760e01b835260048301610993565b0390fd5b61323e906131d0565b565b906132496115cd565b506132526115cd565b5061325b6115cd565b5061328361327e613276613271600f86906108c5565b61169a565b9360106108c5565b61169a565b90826132976132915f611bdb565b916103ef565b1480156132c2575b5f146132b2576132ae5f611bdb565b5b90565b6132bd824290611bf7565b6132af565b50426132d66132d0846103ef565b916103ef565b101561329f565b6132ee906132e9613b2d565b6132f0565b565b613301906132fc613b83565b61330b565b613309613be8565b565b6133389061332361331e60113390610c33565b612b96565b801561333a575b61333390612bfc565b61358e565b565b506133333361335861335261334d612707565b6105a2565b916105a2565b14905061332a565b5f7f726563697069656e7473206e6f74207365740000000000000000000000000000910152565b61339460126020926104c6565b61339d81613360565b0190565b6133b69060208101905f818303910152613387565b90565b156133c057565b6133c86103d2565b62461bcd60e51b8152806133de600482016133a1565b0390fd5b5f7f62656c6f77207468726573686f6c640000000000000000000000000000000000910152565b613416600f6020926104c6565b61341f816133e2565b0190565b6134389060208101905f818303910152613409565b90565b1561344257565b61344a6103d2565b62461bcd60e51b81528061346060048201613423565b0390fd5b5f7f696e73756666696369656e742069646c65000000000000000000000000000000910152565b61349860116020926104c6565b6134a181613464565b0190565b6134ba9060208101905f81830391015261348b565b90565b156134c457565b6134cc6103d2565b62461bcd60e51b8152806134e2600482016134a5565b0390fd5b6134f26134f79161222c565b610b9f565b90565b61350490546134e6565b90565b61351b61351661352092610aba565b61088e565b6103ef565b90565b613532613538919392936103ef565b926103ef565b916135448382026103ef565b92818404149015171561355357565b6116a7565b634e487b7160e01b5f52601260045260245ffd5b61357861357e916103ef565b916103ef565b908115613589570490565b613558565b613598600a6126fa565b6135b26135ac6135a75f611a3a565b6105a2565b916105a2565b1415806136f3575b6135c3906133b9565b6135e9816135e26135dc6135d7600c61169a565b6103ef565b916103ef565b101561343b565b61360e6135f46130ec565b61360761360184926103ef565b916103ef565b11156134bd565b61364361362d82613627613622600b6134fa565b613507565b90613523565b61363d6136386120b1565b613507565b9061356c565b9061364f818390611bf7565b9061367461366361365e611f12565b6115dd565b61366d600a6126fa565b85916138d3565b613698613687613682611f12565b6115dd565b613691600b6126fa565b84916138d3565b6136b56136ae826136a9600d61169a565b6116bb565b600d6117e1565b9190916136ee7f83387a3342ff1ebc5e437dc9ae0f98274afda12a11cf547eebec05a3e0b8f8a7936136e56103d2565b9384938461152c565b0390a1565b506135c3613701600b6126fa565b61371b6137156137105f611a3a565b6105a2565b916105a2565b141590506135ba565b61372d906132dd565b565b613737612707565b61375061374a61374561380d565b6105a2565b916105a2565b0361375757565b61377961376261380d565b5f91829163118cdaa760e01b835260048301610993565b0390fd5b90565b61379461378f6137999261377d565b61088e565b6103ef565b90565b6137a590610929565b604d81116137b357600a0a90565b6116a7565b9061380a916137c56115cd565b50906137e26137d26116e0565b6137dc6001613780565b906116bb565b6138036137ed611c9c565b6137fd6137f861401b565b61379c565b906116bb565b9192614030565b90565b613815611f0e565b503390565b9161382892916001926140a8565b565b9061387c916138376115cd565b509061385a613844611c9c565b61385461384f61401b565b61379c565b906116bb565b6138756138656116e0565b61386f6001613780565b906116bb565b9192614030565b90565b63ffffffff1690565b63ffffffff60e01b1690565b6138a86138a36138ad9261387f565b61163e565b613888565b90565b9160206138d19294936138ca60408201965f830190610986565b01906103f2565b565b9061391a61391f9361390b600494936138f263a9059cbb919391613894565b926138fb6103d2565b96879460208601908152016138b0565b60208201810382520383611615565b6141e8565b565b60409061394a613951949695939661394060608401985f850190610986565b60208301906103f2565b01906103f2565b565b9061395e91036103ef565b90565b92919261396f818390613060565b908161398461397e5f196103ef565b916103ef565b03613991575b5050509050565b816139a461399e876103ef565b916103ef565b106139ca576139c193946139b9919392613953565b905f926140a8565b805f808061398a565b506139e9849291925f938493637dc7a0d960e11b855260048501613921565b0390fd5b9182613a09613a036139fe5f611a3a565b6105a2565b916105a2565b14613a635781613a29613a23613a1e5f611a3a565b6105a2565b916105a2565b14613a3c57613a3a92919091614279565b565b613a5f613a485f611a3a565b5f91829163ec442f0560e01b835260048301610993565b0390fd5b613a86613a6f5f611a3a565b5f918291634b637e8f60e11b835260048301610993565b0390fd5b613a9261438f565b613a9a613ad5565b565b90613aab60ff60a01b91612141565b9181191691161790565b90613aca613ac5613ad192612f38565b612f44565b8254613a9c565b9055565b613ae05f6005613ab5565b613ae861380d565b613b1e7f5db9ee0a495bf2e6ff9c91a7834c1ba4fdd244a5e8aa4e537bd38aeae4b073aa91613b156103d2565b91829182610993565b0390a1565b613b2b613a8a565b565b613b35612253565b613b3b57565b5f63d93c066560e01b815280613b536004820161048a565b0390fd5b90565b613b6e613b69613b7392613b57565b61088e565b6103ef565b90565b613b806002613b5a565b90565b613b8d600661169a565b613ba6613ba0613b9b613b76565b6103ef565b916103ef565b14613bbf57613bbd613bb6613b76565b60066117e1565b565b5f633ee5aeb560e01b815280613bd76004820161048a565b0390fd5b613be56001613780565b90565b613bfa613bf3613bdb565b60066117e1565b565b90613c056115cd565b50613c0f81611f6d565b82613c22613c1c836103ef565b916103ef565b11613c495750613c4690613c358361318d565b92613c3e61380d565b9184926143ce565b90565b82613c678391925f938493633c8097d960e11b855260048501613921565b0390fd5b613c7560056126fa565b613c80826005611ae6565b90613cb4613cae7f8be0079c531659141344cd1fd0a4f28419497f9722a3daafe3b4186f6b6457e0936108b9565b916108b9565b91613cbd6103d2565b80613cc78161048a565b0390a3565b613cd4613b2d565b613cdc613cde565b565b613cea60016005613ab5565b613cf261380d565b613d287f62e78cea01bee320cd4e420270b5ea74000d11b0c9f74754ebdbfc544b05a25891613d1f6103d2565b91829182610993565b0390a1565b613d35613ccc565b565b90613d406115cd565b50613d4a81612e6b565b82613d5d613d57836103ef565b916103ef565b11613d855750613d8290613d7083612a1d565b92613d7961380d565b918491926143ce565b90565b82613da38391925f93849363284ff66760e01b855260048501613921565b0390fd5b90613dbc613db7600f84906108c5565b61169a565b9182613dd0613dca5f611bdb565b916103ef565b14613e5a57613de3613de89160106108c5565b61169a565b42613dfb613df5836103ef565b916103ef565b10613e3b575080613e14613e0e846103ef565b916103ef565b11613e1d575050565b613e375f9283926329bffdad60e21b845260048401611801565b0390fd5b613e56905f918291631371fb4360e11b8352600483016103ff565b0390fd5b5f63f0885f0d60e01b815280613e726004820161048a565b0390fd5b91613e7f6115cd565b50613e8981612e9f565b83613e9c613e96836103ef565b916103ef565b11613ec7575090613ec491613eb0846119ef565b93613eb961380d565b92919091859361445f565b90565b83613ee58391925f938493633fa733bb60e21b855260048501613921565b0390fd5b90613efe613ef9600f84906108c5565b61169a565b80613f11613f0b5f611bdb565b916103ef565b14613f7357613f209190611bf7565b613f3581613f30600f85906108c5565b6117e1565b613f47613f415f611bdb565b916103ef565b14613f50575b50565b613f6d90613f68613f605f611bdb565b9160106108c5565b6117e1565b5f613f4d565b505050565b613f806115cd565b50613f8a83612fcc565b81613f9d613f97836103ef565b916103ef565b11613fc657509081613fb1613fc393612215565b93613fba61380d565b9285929361445f565b90565b90613fe48491925f938493632e52afbb60e21b855260048501613921565b0390fd5b613ffc90613ff46115cd565b505f9061382a565b90565b61401361400e61401892611a1b565b61088e565b610929565b90565b614023611e10565b5061402d5f613fff565b90565b916140396115cd565b5061404f61404984848491614569565b946147e5565b928361407a575b505050614061575b90565b6140759061406f6001613780565b906116bb565b61405e565b9091925091909182156140a3570961409a6140945f611bdb565b916103ef565b115f8080614056565b613558565b9092816140c56140bf6140ba5f611a3a565b6105a2565b916105a2565b1461419057836140e56140df6140da5f611a3a565b6105a2565b916105a2565b1461416957614109836141046140fd6001869061304a565b87906108c5565b6117e1565b614113575b505050565b91909161415e61414c6141467f8c5be1e5ebec7d5bd14f71427d1e84f3dd0314c0f7b2291e5b200ac8c7c3b925936108b9565b936108b9565b936141556103d2565b918291826103ff565b0390a35f808061410e565b61418c6141755f611a3a565b5f918291634a1406b160e11b835260048301610993565b0390fd5b6141b361419c5f611a3a565b5f91829163e602df0560e01b835260048301610993565b0390fd5b5190565b905051906141c88261120f565b565b906020828203126141e3576141e0915f016141bb565b90565b6103dc565b906141fb906141f6836115e9565b614826565b614204816141b7565b6142166142105f611bdb565b916103ef565b1415908161424e575b506142275750565b61423361424a916115e9565b5f918291635274afe760e01b835260048301610993565b0390fd5b614273915061426d906020614262826141b7565b8183010191016141ca565b156105fe565b5f61421f565b92918361429661429061428b5f611a3a565b6105a2565b916105a2565b141580614375575b6142b2575b6142b09293919091614855565b565b6142c66142c1600f86906108c5565b61169a565b93846142da6142d45f611bdb565b916103ef565b1180614348575b6142ed575b93506142a3565b6142f681612410565b94614302868490611bf7565b61431461430e836103ef565b916103ef565b1061431f57506142e6565b61432a915085611bf7565b6143445f928392635557782760e01b845260048401611801565b0390fd5b504261436f61436961436461435f601086906108c5565b61169a565b6103ef565b916103ef565b106142e1565b50806143896143835f611bdb565b916103ef565b1161429e565b6143a061439a612253565b156105fe565b6143a657565b5f638dfc202b60e01b8152806143be6004820161048a565b0390fd5b6143cb906108ad565b90565b6144047f0000000000000000000000000000000000000000000000000000000000000000826143fc306143c2565b9086926149f6565b61440f828590614a46565b90919261444561443f7fdcbc1c05240f31ff3ad067ef1ee35ce4997762752e3a095284754544f4c709d7936108b9565b936108b9565b9361445a6144516103d2565b92839283611801565b0390a3565b8061447261446c856105a2565b916105a2565b03614509575b614483838690614aa4565b6144af7f00000000000000000000000000000000000000000000000000000000000000008386916138d3565b909192936144ef6144e96144e37ffbde797d201c681b91056529119e0b02407c7bb96a4a2c75c01fc9667232c8db946108b9565b946108b9565b946108b9565b946145046144fb6103d2565b92839283611801565b0390a4565b61451583828791613961565b614478565b9061452591026103ef565b90565b61453461453a916103ef565b916103ef565b908115614545570490565b613558565b90565b61456161455c6145669261454a565b61088e565b6103ef565b90565b9190916145746115cd565b5061458081849061451a565b916145896115cd565b505f198483098380821091030393846145aa6145a45f611bdb565b916103ef565b1461473f57816145c26145bc876103ef565b916103ef565b11156147235761472094826146119261471a956145dd6115cd565b50099085821190039403936001836145fe5f6145f98791611bdb565b613953565b1680809504960493805f0304019061451a565b17916147146146f86146d46146b061468c6146686146396003614634899161454d565b61451a565b6146436002613b5a565b18614662600261465d6146578b859061451a565b91613b5a565b613953565b9061451a565b614686600261468161467b8a859061451a565b91613b5a565b613953565b9061451a565b6146aa60026146a561469f89859061451a565b91613b5a565b613953565b9061451a565b6146ce60026146c96146c388859061451a565b91613b5a565b613953565b9061451a565b6146f260026146ed6146e787859061451a565b91613b5a565b613953565b9061451a565b9161470f614709600292859061451a565b91613b5a565b613953565b9061451a565b9061451a565b90565b5f63227bc15360e01b81528061473b6004820161048a565b0390fd5b5091905061474d9250614528565b90565b634e487b7160e01b5f52602160045260245ffd5b6004111561476e57565b614750565b9061477d82614764565b565b61478890614773565b90565b61479f61479a6147a492613b57565b61088e565b610929565b90565b6147b36147b991610929565b91610929565b9081156147c4570690565b613558565b6147dd6147d86147e29261377d565b61088e565b610929565b90565b6147fa61480a916147f46119c9565b5061477f565b614804600261478b565b906147a7565b61481d61481760016147c9565b91610929565b1490565b606090565b9061484491614833614821565b509061483e5f611bdb565b91614b87565b90565b9061485291016103ef565b90565b9190918061487361486d6148685f611a3a565b6105a2565b916105a2565b145f14614954576148976148908361488b600261169a565b6116bb565b60026117e1565b5b826148b36148ad6148a85f611a3a565b6105a2565b916105a2565b145f14614928576148d76148d0836148cb600261169a565b613953565b60026117e1565b5b91909161492361491161490b7fddf252ad1be2c89b69c2b068fc378daa952ba7f163c4a11628f55a4df523b3ef936108b9565b936108b9565b9361491a6103d2565b918291826103ff565b0390a3565b61494f8261494961493a5f87906108c5565b916149448361169a565b614847565b906117e1565b6148d8565b6149676149625f83906108c5565b61169a565b8061497a614974856103ef565b916103ef565b106149a25761498d61499d918490613953565b6149985f84906108c5565b6117e1565b614898565b906149c09091925f93849363391434e360e21b855260048501613921565b0390fd5b6040906149ed6149f494969593966149e360608401985f850190610986565b6020830190610986565b01906103f2565b565b600492614a30614a449593614a3f9394614a176323b872dd92949192613894565b93614a206103d2565b97889560208701908152016149c4565b60208201810382520383611615565b6141e8565b565b80614a61614a5b614a565f611a3a565b6105a2565b916105a2565b14614a7d57614a7b91614a735f611a3a565b919091614279565b565b614aa0614a895f611a3a565b5f91829163ec442f0560e01b835260048301610993565b0390fd5b9081614ac0614aba614ab55f611a3a565b6105a2565b916105a2565b14614adc57614ada9190614ad35f611a3a565b9091614279565b565b614aff614ae85f611a3a565b5f918291634b637e8f60e11b835260048301610993565b0390fd5b614b0c906108ad565b90565b90614b22614b1b6103d2565b9283611615565b565b67ffffffffffffffff8111614b4257614b3e6020916104da565b0190565b611601565b90614b59614b5483614b24565b614b0f565b918252565b3d5f14614b7957614b6e3d614b47565b903d5f602084013e5b565b614b81614821565b90614b77565b9091614b91614821565b50614b9b30614b03565b31614bae614ba8836103ef565b916103ef565b10614bda575f8091614bd7948491602082019151925af190614bce614b5e565b90919091614c01565b90565b614bfd614be630614b03565b5f91829163cd78605960e01b835260048301610993565b0390fd5b90614c1590614c0e614821565b50156105fe565b5f14614c215750614c85565b614c2a826141b7565b614c3c614c365f611bdb565b916103ef565b1480614c6a575b614c4b575090565b614c66905f918291639996b31560e01b835260048301610993565b0390fd5b50803b614c7f614c795f611bdb565b916103ef565b14614c43565b614c8e816141b7565b614ca0614c9a5f611bdb565b916103ef565b115f14614caf57805190602001fd5b5f630a12f52160e11b815280614cc76004820161048a565b0390fdfea26469706673582212209ebf213f9dff905b599a0396ab179977a5fa6831ae50cdb2c9733686586177e564736f6c634300081e0033","linkReferences":{}},"methodIdentifiers":{"adjustExternalNav(int256)":"bad95ca2","allowance(address,address)":"dd62ed3e","approve(address,uint256)":"095ea7b3","asset()":"38d52e0f","balanceOf(address)":"70a08231","cancelWithdraw(uint256)":"9f01f7ba","convertToAssets(uint256)":"07a2d13a","convertToShares(uint256)":"c6e6f592","decimals()":"313ce567","deposit(uint256,address)":"6e553f65","depositCap()":"dbd5edc7","depositMin()":"ed87cf46","externalNav()":"d9d4410a","idleAssets()":"e16b03a3","initiateWithdraw(uint256)":"7e108d52","isKeeper(address)":"6ba42aaa","maxDeposit(address)":"402d267d","maxMint(address)":"c63d75b6","maxRedeem(address)":"d905777e","maxWithdraw(address)":"ce96cb77","mint(uint256,address)":"94bf804d","name()":"06fdde03","owner()":"8da5cb5b","pause()":"8456cb59","paused()":"5c975abb","pendingOf(address)":"f44136a1","pendingShares(address)":"2d9d5336","pendingUnlockAt(address)":"ef79537f","perUserDepositCap()":"8c6c2785","previewDeposit(uint256)":"ef8b30f7","previewMint(uint256)":"b3d7f6b9","previewRedeem(uint256)":"4cdad506","previewWithdraw(uint256)":"0a28a477","rebalance(uint256)":"f4993018","rebalanceMin()":"28ad9997","recipientA()":"6dbd3c94","recipientB()":"3af48ce9","redeem(uint256,address,address)":"ba087652","redemptionPeriod()":"f09e8cd4","renounceOwnership()":"715018a6","rescue(address,address,uint256)":"20ff430b","setDepositCap(uint256)":"86651203","setDepositMin(uint256)":"9343ed32","setKeeper(address,bool)":"d1b9e853","setPerUserDepositCap(uint256)":"04fd703e","setRebalanceMin(uint256)":"df2b0cf3","setRecipients(address,address)":"16de1335","setRedemptionPeriod(uint256)":"9c176969","setSplitBPS(uint16)":"4b5db8f8","splitA_BPS()":"5e14f1de","symbol()":"95d89b41","totalAssets()":"01e1d114","totalSupply()":"18160ddd","transfer(address,uint256)":"a9059cbb","transferFrom(address,address,uint256)":"23b872dd","transferOwnership(address)":"f2fde38b","unlockedSharesOf(address)":"175f7098","unpause()":"3f4ba83a","withdraw(uint256,address,address)":"b460af94"},"id":30}